{
    "_format": "hh-sol-artifact-1",
    "contractName": "Creator",
    "sourceName": "contracts/Creator.sol",
    "abi": [
        {
            "inputs": [
                {
                    "internalType": "address",
                    "name": "_marketplaceAddress",
                    "type": "address"
                },
                {
                    "internalType": "string",
                    "name": "_username",
                    "type": "string"
                },
                {
                    "internalType": "string",
                    "name": "_name",
                    "type": "string"
                },
                {
                    "internalType": "string",
                    "name": "_bio",
                    "type": "string"
                },
                {
                    "internalType": "string",
                    "name": "_profilePicUrl",
                    "type": "string"
                },
                {
                    "internalType": "string",
                    "name": "_nftCollectionName",
                    "type": "string"
                },
                {
                    "internalType": "string",
                    "name": "_nftCollectionSymbol",
                    "type": "string"
                },
                {
                    "internalType": "string",
                    "name": "_tokenName",
                    "type": "string"
                },
                {
                    "internalType": "string",
                    "name": "_tokenSymbol",
                    "type": "string"
                },
                {
                    "internalType": "uint256",
                    "name": "_tokenSupply",
                    "type": "uint256"
                }
            ],
            "stateMutability": "nonpayable",
            "type": "constructor"
        },
        {
            "inputs": [],
            "name": "bio",
            "outputs": [
                {
                    "internalType": "string",
                    "name": "",
                    "type": "string"
                }
            ],
            "stateMutability": "view",
            "type": "function"
        },
        {
            "inputs": [],
            "name": "marketplaceAddress",
            "outputs": [
                {
                    "internalType": "address",
                    "name": "",
                    "type": "address"
                }
            ],
            "stateMutability": "view",
            "type": "function"
        },
        {
            "inputs": [],
            "name": "name",
            "outputs": [
                {
                    "internalType": "string",
                    "name": "",
                    "type": "string"
                }
            ],
            "stateMutability": "view",
            "type": "function"
        },
        {
            "inputs": [],
            "name": "nftCollectionAddress",
            "outputs": [
                {
                    "internalType": "address",
                    "name": "",
                    "type": "address"
                }
            ],
            "stateMutability": "view",
            "type": "function"
        },
        {
            "inputs": [],
            "name": "profilePicUrl",
            "outputs": [
                {
                    "internalType": "string",
                    "name": "",
                    "type": "string"
                }
            ],
            "stateMutability": "view",
            "type": "function"
        },
        {
            "inputs": [],
            "name": "tokenAddress",
            "outputs": [
                {
                    "internalType": "address",
                    "name": "",
                    "type": "address"
                }
            ],
            "stateMutability": "view",
            "type": "function"
        },
        {
            "inputs": [],
            "name": "username",
            "outputs": [
                {
                    "internalType": "string",
                    "name": "",
                    "type": "string"
                }
            ],
            "stateMutability": "view",
            "type": "function"
        }
    ],
    "bytecode": "0x60806040523480156200001157600080fd5b5060405162005e8338038062005e8383398181016040528101906200003791906200052a565b89600660006101000a81548173ffffffffffffffffffffffffffffffffffffffff021916908373ffffffffffffffffffffffffffffffffffffffff160217905550876001908051906020019062000090929190620003a7565b508860009080519060200190620000a9929190620003a7565b508660029080519060200190620000c2929190620003a7565b508560039080519060200190620000db929190620003a7565b5060008585604051620000ee9062000438565b620000fb929190620007e7565b604051809103906000f08015801562000118573d6000803e3d6000fd5b50905060008484846040516200012e9062000446565b6200013c9392919062000822565b604051809103906000f08015801562000159573d6000803e3d6000fd5b5090508073ffffffffffffffffffffffffffffffffffffffff1663a9059cbb620001886200039f60201b60201c565b8373ffffffffffffffffffffffffffffffffffffffff166370a08231306040518263ffffffff1660e01b8152600401620001c391906200079d565b60206040518083038186803b158015620001dc57600080fd5b505afa158015620001f1573d6000803e3d6000fd5b505050506040513d601f19601f820116820180604052508101906200021791906200070e565b6040518363ffffffff1660e01b815260040162000236929190620007ba565b602060405180830381600087803b1580156200025157600080fd5b505af115801562000266573d6000803e3d6000fd5b505050506040513d601f19601f820116820180604052508101906200028c9190620006e2565b508073ffffffffffffffffffffffffffffffffffffffff1663f2fde38b620002b96200039f60201b60201c565b6040518263ffffffff1660e01b8152600401620002d791906200079d565b600060405180830381600087803b158015620002f257600080fd5b505af115801562000307573d6000803e3d6000fd5b5050505081600460006101000a81548173ffffffffffffffffffffffffffffffffffffffff021916908373ffffffffffffffffffffffffffffffffffffffff16021790555080600560006101000a81548173ffffffffffffffffffffffffffffffffffffffff021916908373ffffffffffffffffffffffffffffffffffffffff16021790555050505050505050505050505062000a91565b600033905090565b828054620003b59062000968565b90600052602060002090601f016020900481019282620003d9576000855562000425565b82601f10620003f457805160ff191683800117855562000425565b8280016001018555821562000425579182015b828111156200042457825182559160200191906001019062000407565b5b50905062000434919062000454565b5090565b612ee2806200104d83390190565b611f548062003f2f83390190565b5b808211156200046f57600081600090555060010162000455565b5090565b60006200048a620004848462000896565b6200086d565b905082815260208101848484011115620004a357600080fd5b620004b084828562000932565b509392505050565b600081519050620004c98162000a43565b92915050565b600081519050620004e08162000a5d565b92915050565b600082601f830112620004f857600080fd5b81516200050a84826020860162000473565b91505092915050565b600081519050620005248162000a77565b92915050565b6000806000806000806000806000806101408b8d0312156200054b57600080fd5b60006200055b8d828e01620004b8565b9a505060208b015167ffffffffffffffff8111156200057957600080fd5b620005878d828e01620004e6565b99505060408b015167ffffffffffffffff811115620005a557600080fd5b620005b38d828e01620004e6565b98505060608b015167ffffffffffffffff811115620005d157600080fd5b620005df8d828e01620004e6565b97505060808b015167ffffffffffffffff811115620005fd57600080fd5b6200060b8d828e01620004e6565b96505060a08b015167ffffffffffffffff8111156200062957600080fd5b620006378d828e01620004e6565b95505060c08b015167ffffffffffffffff8111156200065557600080fd5b620006638d828e01620004e6565b94505060e08b015167ffffffffffffffff8111156200068157600080fd5b6200068f8d828e01620004e6565b9350506101008b015167ffffffffffffffff811115620006ae57600080fd5b620006bc8d828e01620004e6565b925050610120620006d08d828e0162000513565b9150509295989b9194979a5092959850565b600060208284031215620006f557600080fd5b60006200070584828501620004cf565b91505092915050565b6000602082840312156200072157600080fd5b6000620007318482850162000513565b91505092915050565b6200074581620008e8565b82525050565b60006200075882620008cc565b620007648185620008d7565b93506200077681856020860162000932565b620007818162000a32565b840191505092915050565b620007978162000928565b82525050565b6000602082019050620007b460008301846200073a565b92915050565b6000604082019050620007d160008301856200073a565b620007e060208301846200078c565b9392505050565b600060408201905081810360008301526200080381856200074b565b905081810360208301526200081981846200074b565b90509392505050565b600060608201905081810360008301526200083e81866200074b565b905081810360208301526200085481856200074b565b90506200086560408301846200078c565b949350505050565b6000620008796200088c565b90506200088782826200099e565b919050565b6000604051905090565b600067ffffffffffffffff821115620008b457620008b362000a03565b5b620008bf8262000a32565b9050602081019050919050565b600081519050919050565b600082825260208201905092915050565b6000620008f58262000908565b9050919050565b60008115159050919050565b600073ffffffffffffffffffffffffffffffffffffffff82169050919050565b6000819050919050565b60005b838110156200095257808201518184015260208101905062000935565b8381111562000962576000848401525b50505050565b600060028204905060018216806200098157607f821691505b60208210811415620009985762000997620009d4565b5b50919050565b620009a98262000a32565b810181811067ffffffffffffffff82111715620009cb57620009ca62000a03565b5b80604052505050565b7f4e487b7100000000000000000000000000000000000000000000000000000000600052602260045260246000fd5b7f4e487b7100000000000000000000000000000000000000000000000000000000600052604160045260246000fd5b6000601f19601f8301169050919050565b62000a4e81620008e8565b811462000a5a57600080fd5b50565b62000a6881620008fc565b811462000a7457600080fd5b50565b62000a828162000928565b811462000a8e57600080fd5b50565b6105ac8062000aa16000396000f3fe608060405234801561001057600080fd5b506004361061007d5760003560e01c806383a2325d1161005b57806383a2325d146100dc5780639d76ea58146100fa578063daa17f4914610118578063f516b422146101365761007d565b806306fdde031461008257806361fac54d146100a05780636e3f7f6c146100be575b600080fd5b61008a610154565b6040516100979190610461565b60405180910390f35b6100a86101e2565b6040516100b59190610461565b60405180910390f35b6100c6610270565b6040516100d39190610461565b60405180910390f35b6100e46102fe565b6040516100f19190610446565b60405180910390f35b610102610324565b60405161010f9190610446565b60405180910390f35b61012061034a565b60405161012d9190610446565b60405180910390f35b61013e610370565b60405161014b9190610461565b60405180910390f35b6001805461016190610504565b80601f016020809104026020016040519081016040528092919081815260200182805461018d90610504565b80156101da5780601f106101af576101008083540402835291602001916101da565b820191906000526020600020905b8154815290600101906020018083116101bd57829003601f168201915b505050505081565b600080546101ef90610504565b80601f016020809104026020016040519081016040528092919081815260200182805461021b90610504565b80156102685780601f1061023d57610100808354040283529160200191610268565b820191906000526020600020905b81548152906001019060200180831161024b57829003601f168201915b505050505081565b6003805461027d90610504565b80601f01602080910402602001604051908101604052809291908181526020018280546102a990610504565b80156102f65780601f106102cb576101008083540402835291602001916102f6565b820191906000526020600020905b8154815290600101906020018083116102d957829003601f168201915b505050505081565b600460009054906101000a900473ffffffffffffffffffffffffffffffffffffffff1681565b600560009054906101000a900473ffffffffffffffffffffffffffffffffffffffff1681565b600660009054906101000a900473ffffffffffffffffffffffffffffffffffffffff1681565b6002805461037d90610504565b80601f01602080910402602001604051908101604052809291908181526020018280546103a990610504565b80156103f65780601f106103cb576101008083540402835291602001916103f6565b820191906000526020600020905b8154815290600101906020018083116103d957829003601f168201915b505050505081565b6104078161049f565b82525050565b600061041882610483565b610422818561048e565b93506104328185602086016104d1565b61043b81610565565b840191505092915050565b600060208201905061045b60008301846103fe565b92915050565b6000602082019050818103600083015261047b818461040d565b905092915050565b600081519050919050565b600082825260208201905092915050565b60006104aa826104b1565b9050919050565b600073ffffffffffffffffffffffffffffffffffffffff82169050919050565b60005b838110156104ef5780820151818401526020810190506104d4565b838111156104fe576000848401525b50505050565b6000600282049050600182168061051c57607f821691505b602082108114156105305761052f610536565b5b50919050565b7f4e487b7100000000000000000000000000000000000000000000000000000000600052602260045260246000fd5b6000601f19601f830116905091905056fea2646970667358221220eb7de4bd4b89a7239c52c52ece41e057f6789b3055a549f2cf3fee17cc390e2764736f6c6343000804003360806040523480156200001157600080fd5b5060405162002ee238038062002ee2833981810160405281019062000037919062000197565b818181600090805190602001906200005192919062000075565b5080600190805190602001906200006a92919062000075565b50505050506200037a565b82805462000083906200029f565b90600052602060002090601f016020900481019282620000a75760008555620000f3565b82601f10620000c257805160ff1916838001178555620000f3565b82800160010185558215620000f3579182015b82811115620000f2578251825591602001919060010190620000d5565b5b50905062000102919062000106565b5090565b5b808211156200012157600081600090555060010162000107565b5090565b60006200013c620001368462000233565b6200020a565b9050828152602081018484840111156200015557600080fd5b6200016284828562000269565b509392505050565b600082601f8301126200017c57600080fd5b81516200018e84826020860162000125565b91505092915050565b60008060408385031215620001ab57600080fd5b600083015167ffffffffffffffff811115620001c657600080fd5b620001d4858286016200016a565b925050602083015167ffffffffffffffff811115620001f257600080fd5b62000200858286016200016a565b9150509250929050565b60006200021662000229565b9050620002248282620002d5565b919050565b6000604051905090565b600067ffffffffffffffff8211156200025157620002506200033a565b5b6200025c8262000369565b9050602081019050919050565b60005b83811015620002895780820151818401526020810190506200026c565b8381111562000299576000848401525b50505050565b60006002820490506001821680620002b857607f821691505b60208210811415620002cf57620002ce6200030b565b5b50919050565b620002e08262000369565b810181811067ffffffffffffffff821117156200030257620003016200033a565b5b80604052505050565b7f4e487b7100000000000000000000000000000000000000000000000000000000600052602260045260246000fd5b7f4e487b7100000000000000000000000000000000000000000000000000000000600052604160045260246000fd5b6000601f19601f8301169050919050565b612b58806200038a6000396000f3fe608060405234801561001057600080fd5b50600436106100ea5760003560e01c80636352211e1161008c578063a22cb46511610066578063a22cb4651461026f578063b88d4fde1461028b578063c87b56dd146102a7578063e985e9c5146102d7576100ea565b80636352211e146101f157806370a082311461022157806395d89b4114610251576100ea565b8063095ea7b3116100c8578063095ea7b31461016d57806323b872dd1461018957806342842e0e146101a557806345576f94146101c1576100ea565b806301ffc9a7146100ef57806306fdde031461011f578063081812fc1461013d575b600080fd5b61010960048036038101906101049190611bc4565b610307565b604051610116919061200b565b60405180910390f35b6101276103e9565b6040516101349190612026565b60405180910390f35b61015760048036038101906101529190611c57565b61047b565b6040516101649190611fa4565b60405180910390f35b61018760048036038101906101829190611b88565b610500565b005b6101a3600480360381019061019e9190611a82565b610618565b005b6101bf60048036038101906101ba9190611a82565b610678565b005b6101db60048036038101906101d69190611c16565b610698565b6040516101e89190612248565b60405180910390f35b61020b60048036038101906102069190611c57565b6106cf565b6040516102189190611fa4565b60405180910390f35b61023b60048036038101906102369190611a1d565b610781565b6040516102489190612248565b60405180910390f35b610259610839565b6040516102669190612026565b60405180910390f35b61028960048036038101906102849190611b4c565b6108cb565b005b6102a560048036038101906102a09190611ad1565b610a4c565b005b6102c160048036038101906102bc9190611c57565b610aae565b6040516102ce9190612026565b60405180910390f35b6102f160048036038101906102ec9190611a46565b610c00565b6040516102fe919061200b565b60405180910390f35b60007f80ac58cd000000000000000000000000000000000000000000000000000000007bffffffffffffffffffffffffffffffffffffffffffffffffffffffff1916827bffffffffffffffffffffffffffffffffffffffffffffffffffffffff191614806103d257507f5b5e139f000000000000000000000000000000000000000000000000000000007bffffffffffffffffffffffffffffffffffffffffffffffffffffffff1916827bffffffffffffffffffffffffffffffffffffffffffffffffffffffff1916145b806103e257506103e182610c94565b5b9050919050565b6060600080546103f89061249e565b80601f01602080910402602001604051908101604052809291908181526020018280546104249061249e565b80156104715780601f1061044657610100808354040283529160200191610471565b820191906000526020600020905b81548152906001019060200180831161045457829003601f168201915b5050505050905090565b600061048682610cfe565b6104c5576040517f08c379a00000000000000000000000000000000000000000000000000000000081526004016104bc906121a8565b60405180910390fd5b6004600083815260200190815260200160002060009054906101000a900473ffffffffffffffffffffffffffffffffffffffff169050919050565b600061050b826106cf565b90508073ffffffffffffffffffffffffffffffffffffffff168373ffffffffffffffffffffffffffffffffffffffff16141561057c576040517f08c379a000000000000000000000000000000000000000000000000000000000815260040161057390612208565b60405180910390fd5b8073ffffffffffffffffffffffffffffffffffffffff1661059b610d6a565b73ffffffffffffffffffffffffffffffffffffffff1614806105ca57506105c9816105c4610d6a565b610c00565b5b610609576040517f08c379a0000000000000000000000000000000000000000000000000000000008152600401610600906120e8565b60405180910390fd5b6106138383610d72565b505050565b610629610623610d6a565b82610e2b565b610668576040517f08c379a000000000000000000000000000000000000000000000000000000000815260040161065f90612228565b60405180910390fd5b610673838383610f09565b505050565b61069383838360405180602001604052806000815250610a4c565b505050565b60006106a46007611165565b60006106b0600761117b565b90506106bc3382611189565b6106c68184611357565b80915050919050565b6000806002600084815260200190815260200160002060009054906101000a900473ffffffffffffffffffffffffffffffffffffffff169050600073ffffffffffffffffffffffffffffffffffffffff168173ffffffffffffffffffffffffffffffffffffffff161415610778576040517f08c379a000000000000000000000000000000000000000000000000000000000815260040161076f90612128565b60405180910390fd5b80915050919050565b60008073ffffffffffffffffffffffffffffffffffffffff168273ffffffffffffffffffffffffffffffffffffffff1614156107f2576040517f08c379a00000000000000000000000000000000000000000000000000000000081526004016107e990612108565b60405180910390fd5b600360008373ffffffffffffffffffffffffffffffffffffffff1673ffffffffffffffffffffffffffffffffffffffff168152602001908152602001600020549050919050565b6060600180546108489061249e565b80601f01602080910402602001604051908101604052809291908181526020018280546108749061249e565b80156108c15780601f10610896576101008083540402835291602001916108c1565b820191906000526020600020905b8154815290600101906020018083116108a457829003601f168201915b5050505050905090565b6108d3610d6a565b73ffffffffffffffffffffffffffffffffffffffff168273ffffffffffffffffffffffffffffffffffffffff161415610941576040517f08c379a0000000000000000000000000000000000000000000000000000000008152600401610938906120a8565b60405180910390fd5b806005600061094e610d6a565b73ffffffffffffffffffffffffffffffffffffffff1673ffffffffffffffffffffffffffffffffffffffff16815260200190815260200160002060008473ffffffffffffffffffffffffffffffffffffffff1673ffffffffffffffffffffffffffffffffffffffff16815260200190815260200160002060006101000a81548160ff0219169083151502179055508173ffffffffffffffffffffffffffffffffffffffff166109fb610d6a565b73ffffffffffffffffffffffffffffffffffffffff167f17307eab39ab6107e8899845ad3d59bd9653f200f220920489ca2b5937696c3183604051610a40919061200b565b60405180910390a35050565b610a5d610a57610d6a565b83610e2b565b610a9c576040517f08c379a0000000000000000000000000000000000000000000000000000000008152600401610a9390612228565b60405180910390fd5b610aa8848484846113cb565b50505050565b6060610ab982610cfe565b610af8576040517f08c379a0000000000000000000000000000000000000000000000000000000008152600401610aef90612188565b60405180910390fd5b6000600660008481526020019081526020016000208054610b189061249e565b80601f0160208091040260200160405190810160405280929190818152602001828054610b449061249e565b8015610b915780601f10610b6657610100808354040283529160200191610b91565b820191906000526020600020905b815481529060010190602001808311610b7457829003601f168201915b505050505090506000610ba2611427565b9050600081511415610bb8578192505050610bfb565b600082511115610bed578082604051602001610bd5929190611f80565b60405160208183030381529060405292505050610bfb565b610bf68461143e565b925050505b919050565b6000600560008473ffffffffffffffffffffffffffffffffffffffff1673ffffffffffffffffffffffffffffffffffffffff16815260200190815260200160002060008373ffffffffffffffffffffffffffffffffffffffff1673ffffffffffffffffffffffffffffffffffffffff16815260200190815260200160002060009054906101000a900460ff16905092915050565b60007f01ffc9a7000000000000000000000000000000000000000000000000000000007bffffffffffffffffffffffffffffffffffffffffffffffffffffffff1916827bffffffffffffffffffffffffffffffffffffffffffffffffffffffff1916149050919050565b60008073ffffffffffffffffffffffffffffffffffffffff166002600084815260200190815260200160002060009054906101000a900473ffffffffffffffffffffffffffffffffffffffff1673ffffffffffffffffffffffffffffffffffffffff1614159050919050565b600033905090565b816004600083815260200190815260200160002060006101000a81548173ffffffffffffffffffffffffffffffffffffffff021916908373ffffffffffffffffffffffffffffffffffffffff160217905550808273ffffffffffffffffffffffffffffffffffffffff16610de5836106cf565b73ffffffffffffffffffffffffffffffffffffffff167f8c5be1e5ebec7d5bd14f71427d1e84f3dd0314c0f7b2291e5b200ac8c7c3b92560405160405180910390a45050565b6000610e3682610cfe565b610e75576040517f08c379a0000000000000000000000000000000000000000000000000000000008152600401610e6c906120c8565b60405180910390fd5b6000610e80836106cf565b90508073ffffffffffffffffffffffffffffffffffffffff168473ffffffffffffffffffffffffffffffffffffffff161480610eef57508373ffffffffffffffffffffffffffffffffffffffff16610ed78461047b565b73ffffffffffffffffffffffffffffffffffffffff16145b80610f005750610eff8185610c00565b5b91505092915050565b8273ffffffffffffffffffffffffffffffffffffffff16610f29826106cf565b73ffffffffffffffffffffffffffffffffffffffff1614610f7f576040517f08c379a0000000000000000000000000000000000000000000000000000000008152600401610f76906121c8565b60405180910390fd5b600073ffffffffffffffffffffffffffffffffffffffff168273ffffffffffffffffffffffffffffffffffffffff161415610fef576040517f08c379a0000000000000000000000000000000000000000000000000000000008152600401610fe690612088565b60405180910390fd5b610ffa8383836114e5565b611005600082610d72565b6001600360008573ffffffffffffffffffffffffffffffffffffffff1673ffffffffffffffffffffffffffffffffffffffff168152602001908152602001600020600082825461105591906123b4565b925050819055506001600360008473ffffffffffffffffffffffffffffffffffffffff1673ffffffffffffffffffffffffffffffffffffffff16815260200190815260200160002060008282546110ac919061232d565b92505081905550816002600083815260200190815260200160002060006101000a81548173ffffffffffffffffffffffffffffffffffffffff021916908373ffffffffffffffffffffffffffffffffffffffff160217905550808273ffffffffffffffffffffffffffffffffffffffff168473ffffffffffffffffffffffffffffffffffffffff167fddf252ad1be2c89b69c2b068fc378daa952ba7f163c4a11628f55a4df523b3ef60405160405180910390a4505050565b6001816000016000828254019250508190555050565b600081600001549050919050565b600073ffffffffffffffffffffffffffffffffffffffff168273ffffffffffffffffffffffffffffffffffffffff1614156111f9576040517f08c379a00000000000000000000000000000000000000000000000000000000081526004016111f090612168565b60405180910390fd5b61120281610cfe565b15611242576040517f08c379a000000000000000000000000000000000000000000000000000000000815260040161123990612068565b60405180910390fd5b61124e600083836114e5565b6001600360008473ffffffffffffffffffffffffffffffffffffffff1673ffffffffffffffffffffffffffffffffffffffff168152602001908152602001600020600082825461129e919061232d565b92505081905550816002600083815260200190815260200160002060006101000a81548173ffffffffffffffffffffffffffffffffffffffff021916908373ffffffffffffffffffffffffffffffffffffffff160217905550808273ffffffffffffffffffffffffffffffffffffffff16600073ffffffffffffffffffffffffffffffffffffffff167fddf252ad1be2c89b69c2b068fc378daa952ba7f163c4a11628f55a4df523b3ef60405160405180910390a45050565b61136082610cfe565b61139f576040517f08c379a000000000000000000000000000000000000000000000000000000000815260040161139690612148565b60405180910390fd5b806006600084815260200190815260200160002090805190602001906113c6929190611841565b505050565b6113d6848484610f09565b6113e2848484846114ea565b611421576040517f08c379a000000000000000000000000000000000000000000000000000000000815260040161141890612048565b60405180910390fd5b50505050565b606060405180602001604052806000815250905090565b606061144982610cfe565b611488576040517f08c379a000000000000000000000000000000000000000000000000000000000815260040161147f906121e8565b60405180910390fd5b6000611492611427565b905060008151116114b257604051806020016040528060008152506114dd565b806114bc84611681565b6040516020016114cd929190611f80565b6040516020818303038152906040525b915050919050565b505050565b600061150b8473ffffffffffffffffffffffffffffffffffffffff1661182e565b15611674578373ffffffffffffffffffffffffffffffffffffffff1663150b7a02611534610d6a565b8786866040518563ffffffff1660e01b81526004016115569493929190611fbf565b602060405180830381600087803b15801561157057600080fd5b505af19250505080156115a157506040513d601f19601f8201168201806040525081019061159e9190611bed565b60015b611624573d80600081146115d1576040519150601f19603f3d011682016040523d82523d6000602084013e6115d6565b606091505b5060008151141561161c576040517f08c379a000000000000000000000000000000000000000000000000000000000815260040161161390612048565b60405180910390fd5b805181602001fd5b63150b7a0260e01b7bffffffffffffffffffffffffffffffffffffffffffffffffffffffff1916817bffffffffffffffffffffffffffffffffffffffffffffffffffffffff191614915050611679565b600190505b949350505050565b606060008214156116c9576040518060400160405280600181526020017f30000000000000000000000000000000000000000000000000000000000000008152509050611829565b600082905060005b600082146116fb5780806116e490612501565b915050600a826116f49190612383565b91506116d1565b60008167ffffffffffffffff81111561173d577f4e487b7100000000000000000000000000000000000000000000000000000000600052604160045260246000fd5b6040519080825280601f01601f19166020018201604052801561176f5781602001600182028036833780820191505090505b5090505b600085146118225760018261178891906123b4565b9150600a85611797919061254a565b60306117a3919061232d565b60f81b8183815181106117df577f4e487b7100000000000000000000000000000000000000000000000000000000600052603260045260246000fd5b60200101907effffffffffffffffffffffffffffffffffffffffffffffffffffffffffffff1916908160001a905350600a8561181b9190612383565b9450611773565b8093505050505b919050565b600080823b905060008111915050919050565b82805461184d9061249e565b90600052602060002090601f01602090048101928261186f57600085556118b6565b82601f1061188857805160ff19168380011785556118b6565b828001600101855582156118b6579182015b828111156118b557825182559160200191906001019061189a565b5b5090506118c391906118c7565b5090565b5b808211156118e05760008160009055506001016118c8565b5090565b60006118f76118f284612288565b612263565b90508281526020810184848401111561190f57600080fd5b61191a84828561245c565b509392505050565b6000611935611930846122b9565b612263565b90508281526020810184848401111561194d57600080fd5b61195884828561245c565b509392505050565b60008135905061196f81612ac6565b92915050565b60008135905061198481612add565b92915050565b60008135905061199981612af4565b92915050565b6000815190506119ae81612af4565b92915050565b600082601f8301126119c557600080fd5b81356119d58482602086016118e4565b91505092915050565b600082601f8301126119ef57600080fd5b81356119ff848260208601611922565b91505092915050565b600081359050611a1781612b0b565b92915050565b600060208284031215611a2f57600080fd5b6000611a3d84828501611960565b91505092915050565b60008060408385031215611a5957600080fd5b6000611a6785828601611960565b9250506020611a7885828601611960565b9150509250929050565b600080600060608486031215611a9757600080fd5b6000611aa586828701611960565b9350506020611ab686828701611960565b9250506040611ac786828701611a08565b9150509250925092565b60008060008060808587031215611ae757600080fd5b6000611af587828801611960565b9450506020611b0687828801611960565b9350506040611b1787828801611a08565b925050606085013567ffffffffffffffff811115611b3457600080fd5b611b40878288016119b4565b91505092959194509250565b60008060408385031215611b5f57600080fd5b6000611b6d85828601611960565b9250506020611b7e85828601611975565b9150509250929050565b60008060408385031215611b9b57600080fd5b6000611ba985828601611960565b9250506020611bba85828601611a08565b9150509250929050565b600060208284031215611bd657600080fd5b6000611be48482850161198a565b91505092915050565b600060208284031215611bff57600080fd5b6000611c0d8482850161199f565b91505092915050565b600060208284031215611c2857600080fd5b600082013567ffffffffffffffff811115611c4257600080fd5b611c4e848285016119de565b91505092915050565b600060208284031215611c6957600080fd5b6000611c7784828501611a08565b91505092915050565b611c89816123e8565b82525050565b611c98816123fa565b82525050565b6000611ca9826122ea565b611cb38185612300565b9350611cc381856020860161246b565b611ccc81612637565b840191505092915050565b6000611ce2826122f5565b611cec8185612311565b9350611cfc81856020860161246b565b611d0581612637565b840191505092915050565b6000611d1b826122f5565b611d258185612322565b9350611d3581856020860161246b565b80840191505092915050565b6000611d4e603283612311565b9150611d5982612648565b604082019050919050565b6000611d71601c83612311565b9150611d7c82612697565b602082019050919050565b6000611d94602483612311565b9150611d9f826126c0565b604082019050919050565b6000611db7601983612311565b9150611dc28261270f565b602082019050919050565b6000611dda602c83612311565b9150611de582612738565b604082019050919050565b6000611dfd603883612311565b9150611e0882612787565b604082019050919050565b6000611e20602a83612311565b9150611e2b826127d6565b604082019050919050565b6000611e43602983612311565b9150611e4e82612825565b604082019050919050565b6000611e66602e83612311565b9150611e7182612874565b604082019050919050565b6000611e89602083612311565b9150611e94826128c3565b602082019050919050565b6000611eac603183612311565b9150611eb7826128ec565b604082019050919050565b6000611ecf602c83612311565b9150611eda8261293b565b604082019050919050565b6000611ef2602983612311565b9150611efd8261298a565b604082019050919050565b6000611f15602f83612311565b9150611f20826129d9565b604082019050919050565b6000611f38602183612311565b9150611f4382612a28565b604082019050919050565b6000611f5b603183612311565b9150611f6682612a77565b604082019050919050565b611f7a81612452565b82525050565b6000611f8c8285611d10565b9150611f988284611d10565b91508190509392505050565b6000602082019050611fb96000830184611c80565b92915050565b6000608082019050611fd46000830187611c80565b611fe16020830186611c80565b611fee6040830185611f71565b81810360608301526120008184611c9e565b905095945050505050565b60006020820190506120206000830184611c8f565b92915050565b600060208201905081810360008301526120408184611cd7565b905092915050565b6000602082019050818103600083015261206181611d41565b9050919050565b6000602082019050818103600083015261208181611d64565b9050919050565b600060208201905081810360008301526120a181611d87565b9050919050565b600060208201905081810360008301526120c181611daa565b9050919050565b600060208201905081810360008301526120e181611dcd565b9050919050565b6000602082019050818103600083015261210181611df0565b9050919050565b6000602082019050818103600083015261212181611e13565b9050919050565b6000602082019050818103600083015261214181611e36565b9050919050565b6000602082019050818103600083015261216181611e59565b9050919050565b6000602082019050818103600083015261218181611e7c565b9050919050565b600060208201905081810360008301526121a181611e9f565b9050919050565b600060208201905081810360008301526121c181611ec2565b9050919050565b600060208201905081810360008301526121e181611ee5565b9050919050565b6000602082019050818103600083015261220181611f08565b9050919050565b6000602082019050818103600083015261222181611f2b565b9050919050565b6000602082019050818103600083015261224181611f4e565b9050919050565b600060208201905061225d6000830184611f71565b92915050565b600061226d61227e565b905061227982826124d0565b919050565b6000604051905090565b600067ffffffffffffffff8211156122a3576122a2612608565b5b6122ac82612637565b9050602081019050919050565b600067ffffffffffffffff8211156122d4576122d3612608565b5b6122dd82612637565b9050602081019050919050565b600081519050919050565b600081519050919050565b600082825260208201905092915050565b600082825260208201905092915050565b600081905092915050565b600061233882612452565b915061234383612452565b9250827fffffffffffffffffffffffffffffffffffffffffffffffffffffffffffffffff038211156123785761237761257b565b5b828201905092915050565b600061238e82612452565b915061239983612452565b9250826123a9576123a86125aa565b5b828204905092915050565b60006123bf82612452565b91506123ca83612452565b9250828210156123dd576123dc61257b565b5b828203905092915050565b60006123f382612432565b9050919050565b60008115159050919050565b60007fffffffff0000000000000000000000000000000000000000000000000000000082169050919050565b600073ffffffffffffffffffffffffffffffffffffffff82169050919050565b6000819050919050565b82818337600083830152505050565b60005b8381101561248957808201518184015260208101905061246e565b83811115612498576000848401525b50505050565b600060028204905060018216806124b657607f821691505b602082108114156124ca576124c96125d9565b5b50919050565b6124d982612637565b810181811067ffffffffffffffff821117156124f8576124f7612608565b5b80604052505050565b600061250c82612452565b91507fffffffffffffffffffffffffffffffffffffffffffffffffffffffffffffffff82141561253f5761253e61257b565b5b600182019050919050565b600061255582612452565b915061256083612452565b9250826125705761256f6125aa565b5b828206905092915050565b7f4e487b7100000000000000000000000000000000000000000000000000000000600052601160045260246000fd5b7f4e487b7100000000000000000000000000000000000000000000000000000000600052601260045260246000fd5b7f4e487b7100000000000000000000000000000000000000000000000000000000600052602260045260246000fd5b7f4e487b7100000000000000000000000000000000000000000000000000000000600052604160045260246000fd5b6000601f19601f8301169050919050565b7f4552433732313a207472616e7366657220746f206e6f6e20455243373231526560008201527f63656976657220696d706c656d656e7465720000000000000000000000000000602082015250565b7f4552433732313a20746f6b656e20616c7265616479206d696e74656400000000600082015250565b7f4552433732313a207472616e7366657220746f20746865207a65726f2061646460008201527f7265737300000000000000000000000000000000000000000000000000000000602082015250565b7f4552433732313a20617070726f766520746f2063616c6c657200000000000000600082015250565b7f4552433732313a206f70657261746f7220717565727920666f72206e6f6e657860008201527f697374656e7420746f6b656e0000000000000000000000000000000000000000602082015250565b7f4552433732313a20617070726f76652063616c6c6572206973206e6f74206f7760008201527f6e6572206e6f7220617070726f76656420666f7220616c6c0000000000000000602082015250565b7f4552433732313a2062616c616e636520717565727920666f7220746865207a6560008201527f726f206164647265737300000000000000000000000000000000000000000000602082015250565b7f4552433732313a206f776e657220717565727920666f72206e6f6e657869737460008201527f656e7420746f6b656e0000000000000000000000000000000000000000000000602082015250565b7f45524337323155524953746f726167653a2055524920736574206f66206e6f6e60008201527f6578697374656e7420746f6b656e000000000000000000000000000000000000602082015250565b7f4552433732313a206d696e7420746f20746865207a65726f2061646472657373600082015250565b7f45524337323155524953746f726167653a2055524920717565727920666f722060008201527f6e6f6e6578697374656e7420746f6b656e000000000000000000000000000000602082015250565b7f4552433732313a20617070726f76656420717565727920666f72206e6f6e657860008201527f697374656e7420746f6b656e0000000000000000000000000000000000000000602082015250565b7f4552433732313a207472616e73666572206f6620746f6b656e2074686174206960008201527f73206e6f74206f776e0000000000000000000000000000000000000000000000602082015250565b7f4552433732314d657461646174613a2055524920717565727920666f72206e6f60008201527f6e6578697374656e7420746f6b656e0000000000000000000000000000000000602082015250565b7f4552433732313a20617070726f76616c20746f2063757272656e74206f776e6560008201527f7200000000000000000000000000000000000000000000000000000000000000602082015250565b7f4552433732313a207472616e736665722063616c6c6572206973206e6f74206f60008201527f776e6572206e6f7220617070726f766564000000000000000000000000000000602082015250565b612acf816123e8565b8114612ada57600080fd5b50565b612ae6816123fa565b8114612af157600080fd5b50565b612afd81612406565b8114612b0857600080fd5b50565b612b1481612452565b8114612b1f57600080fd5b5056fea2646970667358221220f125b2e3027c26e2aa4386fb61dd3fde1b621dcd7ff036eac630cf2f57871e7264736f6c6343000804003360806040523480156200001157600080fd5b5060405162001f5438038062001f54833981810160405281019062000037919062000439565b828281600390805190602001906200005192919062000300565b5080600490805190602001906200006a92919062000300565b5050506200008d62000081620000af60201b60201c565b620000b760201b60201c565b80600681905550620000a632826200017d60201b60201c565b50505062000792565b600033905090565b6000600560009054906101000a900473ffffffffffffffffffffffffffffffffffffffff16905081600560006101000a81548173ffffffffffffffffffffffffffffffffffffffff021916908373ffffffffffffffffffffffffffffffffffffffff1602179055508173ffffffffffffffffffffffffffffffffffffffff168173ffffffffffffffffffffffffffffffffffffffff167f8be0079c531659141344cd1fd0a4f28419497f9722a3daafe3b4186f6b6457e060405160405180910390a35050565b600073ffffffffffffffffffffffffffffffffffffffff168273ffffffffffffffffffffffffffffffffffffffff161415620001f0576040517f08c379a0000000000000000000000000000000000000000000000000000000008152600401620001e790620004f9565b60405180910390fd5b6200020460008383620002f660201b60201c565b8060026000828254620002189190620005a8565b92505081905550806000808473ffffffffffffffffffffffffffffffffffffffff1673ffffffffffffffffffffffffffffffffffffffff16815260200190815260200160002060008282546200026f9190620005a8565b925050819055508173ffffffffffffffffffffffffffffffffffffffff16600073ffffffffffffffffffffffffffffffffffffffff167fddf252ad1be2c89b69c2b068fc378daa952ba7f163c4a11628f55a4df523b3ef83604051620002d691906200051b565b60405180910390a3620002f260008383620002fb60201b60201c565b5050565b505050565b505050565b8280546200030e9062000645565b90600052602060002090601f0160209004810192826200033257600085556200037e565b82601f106200034d57805160ff19168380011785556200037e565b828001600101855582156200037e579182015b828111156200037d57825182559160200191906001019062000360565b5b5090506200038d919062000391565b5090565b5b80821115620003ac57600081600090555060010162000392565b5090565b6000620003c7620003c18462000561565b62000538565b905082815260208101848484011115620003e057600080fd5b620003ed8482856200060f565b509392505050565b600082601f8301126200040757600080fd5b815162000419848260208601620003b0565b91505092915050565b600081519050620004338162000778565b92915050565b6000806000606084860312156200044f57600080fd5b600084015167ffffffffffffffff8111156200046a57600080fd5b6200047886828701620003f5565b935050602084015167ffffffffffffffff8111156200049657600080fd5b620004a486828701620003f5565b9250506040620004b78682870162000422565b9150509250925092565b6000620004d0601f8362000597565b9150620004dd826200074f565b602082019050919050565b620004f38162000605565b82525050565b600060208201905081810360008301526200051481620004c1565b9050919050565b6000602082019050620005326000830184620004e8565b92915050565b60006200054462000557565b90506200055282826200067b565b919050565b6000604051905090565b600067ffffffffffffffff8211156200057f576200057e6200070f565b5b6200058a826200073e565b9050602081019050919050565b600082825260208201905092915050565b6000620005b58262000605565b9150620005c28362000605565b9250827fffffffffffffffffffffffffffffffffffffffffffffffffffffffffffffffff03821115620005fa57620005f9620006b1565b5b828201905092915050565b6000819050919050565b60005b838110156200062f57808201518184015260208101905062000612565b838111156200063f576000848401525b50505050565b600060028204905060018216806200065e57607f821691505b60208210811415620006755762000674620006e0565b5b50919050565b62000686826200073e565b810181811067ffffffffffffffff82111715620006a857620006a76200070f565b5b80604052505050565b7f4e487b7100000000000000000000000000000000000000000000000000000000600052601160045260246000fd5b7f4e487b7100000000000000000000000000000000000000000000000000000000600052602260045260246000fd5b7f4e487b7100000000000000000000000000000000000000000000000000000000600052604160045260246000fd5b6000601f19601f8301169050919050565b7f45524332303a206d696e7420746f20746865207a65726f206164647265737300600082015250565b620007838162000605565b81146200078f57600080fd5b50565b6117b280620007a26000396000f3fe608060405234801561001057600080fd5b50600436106100ea5760003560e01c8063715018a61161008c578063a457c2d711610066578063a457c2d71461024f578063a9059cbb1461027f578063dd62ed3e146102af578063f2fde38b146102df576100ea565b8063715018a6146102095780638da5cb5b1461021357806395d89b4114610231576100ea565b806323b872dd116100c857806323b872dd1461015b578063313ce5671461018b57806339509351146101a957806370a08231146101d9576100ea565b806306fdde03146100ef578063095ea7b31461010d57806318160ddd1461013d575b600080fd5b6100f76102fb565b604051610104919061119a565b60405180910390f35b61012760048036038101906101229190610f78565b61038d565b604051610134919061117f565b60405180910390f35b6101456103ab565b60405161015291906112dc565b60405180910390f35b61017560048036038101906101709190610f29565b6103b5565b604051610182919061117f565b60405180910390f35b6101936104ad565b6040516101a091906112f7565b60405180910390f35b6101c360048036038101906101be9190610f78565b6104b6565b6040516101d0919061117f565b60405180910390f35b6101f360048036038101906101ee9190610ec4565b610562565b60405161020091906112dc565b60405180910390f35b6102116105aa565b005b61021b610632565b6040516102289190611164565b60405180910390f35b61023961065c565b604051610246919061119a565b60405180910390f35b61026960048036038101906102649190610f78565b6106ee565b604051610276919061117f565b60405180910390f35b61029960048036038101906102949190610f78565b6107d9565b6040516102a6919061117f565b60405180910390f35b6102c960048036038101906102c49190610eed565b6107f7565b6040516102d691906112dc565b60405180910390f35b6102f960048036038101906102f49190610ec4565b61087e565b005b60606003805461030a9061140c565b80601f01602080910402602001604051908101604052809291908181526020018280546103369061140c565b80156103835780601f1061035857610100808354040283529160200191610383565b820191906000526020600020905b81548152906001019060200180831161036657829003601f168201915b5050505050905090565b60006103a161039a610976565b848461097e565b6001905092915050565b6000600254905090565b60006103c2848484610b49565b6000600160008673ffffffffffffffffffffffffffffffffffffffff1673ffffffffffffffffffffffffffffffffffffffff168152602001908152602001600020600061040d610976565b73ffffffffffffffffffffffffffffffffffffffff1673ffffffffffffffffffffffffffffffffffffffff1681526020019081526020016000205490508281101561048d576040517f08c379a00000000000000000000000000000000000000000000000000000000081526004016104849061123c565b60405180910390fd5b6104a185610499610976565b85840361097e565b60019150509392505050565b60006012905090565b60006105586104c3610976565b8484600160006104d1610976565b73ffffffffffffffffffffffffffffffffffffffff1673ffffffffffffffffffffffffffffffffffffffff16815260200190815260200160002060008873ffffffffffffffffffffffffffffffffffffffff1673ffffffffffffffffffffffffffffffffffffffff16815260200190815260200160002054610553919061132e565b61097e565b6001905092915050565b60008060008373ffffffffffffffffffffffffffffffffffffffff1673ffffffffffffffffffffffffffffffffffffffff168152602001908152602001600020549050919050565b6105b2610976565b73ffffffffffffffffffffffffffffffffffffffff166105d0610632565b73ffffffffffffffffffffffffffffffffffffffff1614610626576040517f08c379a000000000000000000000000000000000000000000000000000000000815260040161061d9061125c565b60405180910390fd5b6106306000610dca565b565b6000600560009054906101000a900473ffffffffffffffffffffffffffffffffffffffff16905090565b60606004805461066b9061140c565b80601f01602080910402602001604051908101604052809291908181526020018280546106979061140c565b80156106e45780601f106106b9576101008083540402835291602001916106e4565b820191906000526020600020905b8154815290600101906020018083116106c757829003601f168201915b5050505050905090565b600080600160006106fd610976565b73ffffffffffffffffffffffffffffffffffffffff1673ffffffffffffffffffffffffffffffffffffffff16815260200190815260200160002060008573ffffffffffffffffffffffffffffffffffffffff1673ffffffffffffffffffffffffffffffffffffffff168152602001908152602001600020549050828110156107ba576040517f08c379a00000000000000000000000000000000000000000000000000000000081526004016107b1906112bc565b60405180910390fd5b6107ce6107c5610976565b8585840361097e565b600191505092915050565b60006107ed6107e6610976565b8484610b49565b6001905092915050565b6000600160008473ffffffffffffffffffffffffffffffffffffffff1673ffffffffffffffffffffffffffffffffffffffff16815260200190815260200160002060008373ffffffffffffffffffffffffffffffffffffffff1673ffffffffffffffffffffffffffffffffffffffff16815260200190815260200160002054905092915050565b610886610976565b73ffffffffffffffffffffffffffffffffffffffff166108a4610632565b73ffffffffffffffffffffffffffffffffffffffff16146108fa576040517f08c379a00000000000000000000000000000000000000000000000000000000081526004016108f19061125c565b60405180910390fd5b600073ffffffffffffffffffffffffffffffffffffffff168173ffffffffffffffffffffffffffffffffffffffff16141561096a576040517f08c379a0000000000000000000000000000000000000000000000000000000008152600401610961906111dc565b60405180910390fd5b61097381610dca565b50565b600033905090565b600073ffffffffffffffffffffffffffffffffffffffff168373ffffffffffffffffffffffffffffffffffffffff1614156109ee576040517f08c379a00000000000000000000000000000000000000000000000000000000081526004016109e59061129c565b60405180910390fd5b600073ffffffffffffffffffffffffffffffffffffffff168273ffffffffffffffffffffffffffffffffffffffff161415610a5e576040517f08c379a0000000000000000000000000000000000000000000000000000000008152600401610a55906111fc565b60405180910390fd5b80600160008573ffffffffffffffffffffffffffffffffffffffff1673ffffffffffffffffffffffffffffffffffffffff16815260200190815260200160002060008473ffffffffffffffffffffffffffffffffffffffff1673ffffffffffffffffffffffffffffffffffffffff168152602001908152602001600020819055508173ffffffffffffffffffffffffffffffffffffffff168373ffffffffffffffffffffffffffffffffffffffff167f8c5be1e5ebec7d5bd14f71427d1e84f3dd0314c0f7b2291e5b200ac8c7c3b92583604051610b3c91906112dc565b60405180910390a3505050565b600073ffffffffffffffffffffffffffffffffffffffff168373ffffffffffffffffffffffffffffffffffffffff161415610bb9576040517f08c379a0000000000000000000000000000000000000000000000000000000008152600401610bb09061127c565b60405180910390fd5b600073ffffffffffffffffffffffffffffffffffffffff168273ffffffffffffffffffffffffffffffffffffffff161415610c29576040517f08c379a0000000000000000000000000000000000000000000000000000000008152600401610c20906111bc565b60405180910390fd5b610c34838383610e90565b60008060008573ffffffffffffffffffffffffffffffffffffffff1673ffffffffffffffffffffffffffffffffffffffff16815260200190815260200160002054905081811015610cba576040517f08c379a0000000000000000000000000000000000000000000000000000000008152600401610cb19061121c565b60405180910390fd5b8181036000808673ffffffffffffffffffffffffffffffffffffffff1673ffffffffffffffffffffffffffffffffffffffff16815260200190815260200160002081905550816000808573ffffffffffffffffffffffffffffffffffffffff1673ffffffffffffffffffffffffffffffffffffffff1681526020019081526020016000206000828254610d4d919061132e565b925050819055508273ffffffffffffffffffffffffffffffffffffffff168473ffffffffffffffffffffffffffffffffffffffff167fddf252ad1be2c89b69c2b068fc378daa952ba7f163c4a11628f55a4df523b3ef84604051610db191906112dc565b60405180910390a3610dc4848484610e95565b50505050565b6000600560009054906101000a900473ffffffffffffffffffffffffffffffffffffffff16905081600560006101000a81548173ffffffffffffffffffffffffffffffffffffffff021916908373ffffffffffffffffffffffffffffffffffffffff1602179055508173ffffffffffffffffffffffffffffffffffffffff168173ffffffffffffffffffffffffffffffffffffffff167f8be0079c531659141344cd1fd0a4f28419497f9722a3daafe3b4186f6b6457e060405160405180910390a35050565b505050565b505050565b600081359050610ea98161174e565b92915050565b600081359050610ebe81611765565b92915050565b600060208284031215610ed657600080fd5b6000610ee484828501610e9a565b91505092915050565b60008060408385031215610f0057600080fd5b6000610f0e85828601610e9a565b9250506020610f1f85828601610e9a565b9150509250929050565b600080600060608486031215610f3e57600080fd5b6000610f4c86828701610e9a565b9350506020610f5d86828701610e9a565b9250506040610f6e86828701610eaf565b9150509250925092565b60008060408385031215610f8b57600080fd5b6000610f9985828601610e9a565b9250506020610faa85828601610eaf565b9150509250929050565b610fbd81611384565b82525050565b610fcc81611396565b82525050565b6000610fdd82611312565b610fe7818561131d565b9350610ff78185602086016113d9565b6110008161149c565b840191505092915050565b600061101860238361131d565b9150611023826114ad565b604082019050919050565b600061103b60268361131d565b9150611046826114fc565b604082019050919050565b600061105e60228361131d565b91506110698261154b565b604082019050919050565b600061108160268361131d565b915061108c8261159a565b604082019050919050565b60006110a460288361131d565b91506110af826115e9565b604082019050919050565b60006110c760208361131d565b91506110d282611638565b602082019050919050565b60006110ea60258361131d565b91506110f582611661565b604082019050919050565b600061110d60248361131d565b9150611118826116b0565b604082019050919050565b600061113060258361131d565b915061113b826116ff565b604082019050919050565b61114f816113c2565b82525050565b61115e816113cc565b82525050565b60006020820190506111796000830184610fb4565b92915050565b60006020820190506111946000830184610fc3565b92915050565b600060208201905081810360008301526111b48184610fd2565b905092915050565b600060208201905081810360008301526111d58161100b565b9050919050565b600060208201905081810360008301526111f58161102e565b9050919050565b6000602082019050818103600083015261121581611051565b9050919050565b6000602082019050818103600083015261123581611074565b9050919050565b6000602082019050818103600083015261125581611097565b9050919050565b60006020820190508181036000830152611275816110ba565b9050919050565b60006020820190508181036000830152611295816110dd565b9050919050565b600060208201905081810360008301526112b581611100565b9050919050565b600060208201905081810360008301526112d581611123565b9050919050565b60006020820190506112f16000830184611146565b92915050565b600060208201905061130c6000830184611155565b92915050565b600081519050919050565b600082825260208201905092915050565b6000611339826113c2565b9150611344836113c2565b9250827fffffffffffffffffffffffffffffffffffffffffffffffffffffffffffffffff038211156113795761137861143e565b5b828201905092915050565b600061138f826113a2565b9050919050565b60008115159050919050565b600073ffffffffffffffffffffffffffffffffffffffff82169050919050565b6000819050919050565b600060ff82169050919050565b60005b838110156113f75780820151818401526020810190506113dc565b83811115611406576000848401525b50505050565b6000600282049050600182168061142457607f821691505b602082108114156114385761143761146d565b5b50919050565b7f4e487b7100000000000000000000000000000000000000000000000000000000600052601160045260246000fd5b7f4e487b7100000000000000000000000000000000000000000000000000000000600052602260045260246000fd5b6000601f19601f8301169050919050565b7f45524332303a207472616e7366657220746f20746865207a65726f206164647260008201527f6573730000000000000000000000000000000000000000000000000000000000602082015250565b7f4f776e61626c653a206e6577206f776e657220697320746865207a65726f206160008201527f6464726573730000000000000000000000000000000000000000000000000000602082015250565b7f45524332303a20617070726f766520746f20746865207a65726f20616464726560008201527f7373000000000000000000000000000000000000000000000000000000000000602082015250565b7f45524332303a207472616e7366657220616d6f756e742065786365656473206260008201527f616c616e63650000000000000000000000000000000000000000000000000000602082015250565b7f45524332303a207472616e7366657220616d6f756e742065786365656473206160008201527f6c6c6f77616e6365000000000000000000000000000000000000000000000000602082015250565b7f4f776e61626c653a2063616c6c6572206973206e6f7420746865206f776e6572600082015250565b7f45524332303a207472616e736665722066726f6d20746865207a65726f20616460008201527f6472657373000000000000000000000000000000000000000000000000000000602082015250565b7f45524332303a20617070726f76652066726f6d20746865207a65726f2061646460008201527f7265737300000000000000000000000000000000000000000000000000000000602082015250565b7f45524332303a2064656372656173656420616c6c6f77616e63652062656c6f7760008201527f207a65726f000000000000000000000000000000000000000000000000000000602082015250565b61175781611384565b811461176257600080fd5b50565b61176e816113c2565b811461177957600080fd5b5056fea26469706673582212202b6beb66ce28ab093b6782bf383966c2d75f20b41e1d4fabf44701fcc3d1f6b564736f6c63430008040033",
    "linkReferences": {},
    "deployedLinkReferences": {}
}