{
  "_format": "hh-sol-artifact-1",
  "contractName": "Creator",
  "sourceName": "contracts/Creator.sol",
  "abi": [
    {
      "inputs": [
        {
          "internalType": "string",
          "name": "_username",
          "type": "string"
        },
        {
          "internalType": "string",
          "name": "_name",
          "type": "string"
        },
        {
          "internalType": "string",
          "name": "_bio",
          "type": "string"
        },
        {
          "internalType": "string",
          "name": "_profilePicUrl",
          "type": "string"
        },
        {
          "internalType": "string",
          "name": "_nftCollectionName",
          "type": "string"
        },
        {
          "internalType": "string",
          "name": "_nftCollectionSymbol",
          "type": "string"
        }
      ],
      "stateMutability": "nonpayable",
      "type": "constructor"
    },
    {
      "inputs": [],
      "name": "bio",
      "outputs": [
        {
          "internalType": "string",
          "name": "",
          "type": "string"
        }
      ],
      "stateMutability": "view",
      "type": "function"
    },
    {
      "inputs": [],
      "name": "name",
      "outputs": [
        {
          "internalType": "string",
          "name": "",
          "type": "string"
        }
      ],
      "stateMutability": "view",
      "type": "function"
    },
    {
      "inputs": [],
      "name": "nftCollectionAddress",
      "outputs": [
        {
          "internalType": "address",
          "name": "",
          "type": "address"
        }
      ],
      "stateMutability": "view",
      "type": "function"
    },
    {
      "inputs": [],
      "name": "nftCollectionName",
      "outputs": [
        {
          "internalType": "string",
          "name": "",
          "type": "string"
        }
      ],
      "stateMutability": "view",
      "type": "function"
    },
    {
      "inputs": [],
      "name": "nftCollectionSymbol",
      "outputs": [
        {
          "internalType": "string",
          "name": "",
          "type": "string"
        }
      ],
      "stateMutability": "view",
      "type": "function"
    },
    {
      "inputs": [],
      "name": "profilePicUrl",
      "outputs": [
        {
          "internalType": "string",
          "name": "",
          "type": "string"
        }
      ],
      "stateMutability": "view",
      "type": "function"
    },
    {
      "inputs": [],
      "name": "username",
      "outputs": [
        {
          "internalType": "string",
          "name": "",
          "type": "string"
        }
      ],
      "stateMutability": "view",
      "type": "function"
    }
  ],
  "bytecode": "0x60806040523480156200001157600080fd5b50604051620043c7380380620043c783398181016040528101906200003791906200028c565b84600190805190602001906200004f9291906200015c565b508560009080519060200190620000689291906200015c565b508360029080519060200190620000819291906200015c565b5082600390805190602001906200009a9291906200015c565b508160049080519060200190620000b39291906200015c565b508060059080519060200190620000cc9291906200015c565b50600060046005604051620000e190620001ed565b620000ee92919062000444565b604051809103906000f0801580156200010b573d6000803e3d6000fd5b50905080600660006101000a81548173ffffffffffffffffffffffffffffffffffffffff021916908373ffffffffffffffffffffffffffffffffffffffff1602179055505050505050505062000615565b8280546200016a906200053a565b90600052602060002090601f0160209004810192826200018e5760008555620001da565b82601f10620001a957805160ff1916838001178555620001da565b82800160010185558215620001da579182015b82811115620001d9578251825591602001919060010190620001bc565b5b509050620001e99190620001fb565b5090565b6137268062000ca183390190565b5b8082111562000216576000816000905550600101620001fc565b5090565b6000620002316200022b84620004a8565b6200047f565b9050828152602081018484840111156200024a57600080fd5b6200025784828562000504565b509392505050565b600082601f8301126200027157600080fd5b8151620002838482602086016200021a565b91505092915050565b60008060008060008060c08789031215620002a657600080fd5b600087015167ffffffffffffffff811115620002c157600080fd5b620002cf89828a016200025f565b965050602087015167ffffffffffffffff811115620002ed57600080fd5b620002fb89828a016200025f565b955050604087015167ffffffffffffffff8111156200031957600080fd5b6200032789828a016200025f565b945050606087015167ffffffffffffffff8111156200034557600080fd5b6200035389828a016200025f565b935050608087015167ffffffffffffffff8111156200037157600080fd5b6200037f89828a016200025f565b92505060a087015167ffffffffffffffff8111156200039d57600080fd5b620003ab89828a016200025f565b9150509295509295509295565b60008154620003c7816200053a565b620003d38186620004f3565b94506001821660008114620003f1576001811462000404576200043b565b60ff19831686526020860193506200043b565b6200040f85620004de565b60005b83811015620004335781548189015260018201915060208101905062000412565b808801955050505b50505092915050565b60006040820190508181036000830152620004608185620003b8565b90508181036020830152620004768184620003b8565b90509392505050565b60006200048b6200049e565b905062000499828262000570565b919050565b6000604051905090565b600067ffffffffffffffff821115620004c657620004c5620005d5565b5b620004d18262000604565b9050602081019050919050565b60008190508160005260206000209050919050565b600082825260208201905092915050565b60005b838110156200052457808201518184015260208101905062000507565b8381111562000534576000848401525b50505050565b600060028204905060018216806200055357607f821691505b602082108114156200056a5762000569620005a6565b5b50919050565b6200057b8262000604565b810181811067ffffffffffffffff821117156200059d576200059c620005d5565b5b80604052505050565b7f4e487b7100000000000000000000000000000000000000000000000000000000600052602260045260246000fd5b7f4e487b7100000000000000000000000000000000000000000000000000000000600052604160045260246000fd5b6000601f19601f8301169050919050565b61067c80620006256000396000f3fe608060405234801561001057600080fd5b506004361061007d5760003560e01c806361fac54d1161005b57806361fac54d146100dc5780636e3f7f6c146100fa57806383a2325d14610118578063f516b422146101365761007d565b806306fdde0314610082578063232982ae146100a0578063573a5353146100be575b600080fd5b61008a610154565b6040516100979190610531565b60405180910390f35b6100a86101e2565b6040516100b59190610531565b60405180910390f35b6100c6610270565b6040516100d39190610531565b60405180910390f35b6100e46102fe565b6040516100f19190610531565b60405180910390f35b61010261038c565b60405161010f9190610531565b60405180910390f35b61012061041a565b60405161012d9190610516565b60405180910390f35b61013e610440565b60405161014b9190610531565b60405180910390f35b60018054610161906105d4565b80601f016020809104026020016040519081016040528092919081815260200182805461018d906105d4565b80156101da5780601f106101af576101008083540402835291602001916101da565b820191906000526020600020905b8154815290600101906020018083116101bd57829003601f168201915b505050505081565b600580546101ef906105d4565b80601f016020809104026020016040519081016040528092919081815260200182805461021b906105d4565b80156102685780601f1061023d57610100808354040283529160200191610268565b820191906000526020600020905b81548152906001019060200180831161024b57829003601f168201915b505050505081565b6004805461027d906105d4565b80601f01602080910402602001604051908101604052809291908181526020018280546102a9906105d4565b80156102f65780601f106102cb576101008083540402835291602001916102f6565b820191906000526020600020905b8154815290600101906020018083116102d957829003601f168201915b505050505081565b6000805461030b906105d4565b80601f0160208091040260200160405190810160405280929190818152602001828054610337906105d4565b80156103845780601f1061035957610100808354040283529160200191610384565b820191906000526020600020905b81548152906001019060200180831161036757829003601f168201915b505050505081565b60038054610399906105d4565b80601f01602080910402602001604051908101604052809291908181526020018280546103c5906105d4565b80156104125780601f106103e757610100808354040283529160200191610412565b820191906000526020600020905b8154815290600101906020018083116103f557829003601f168201915b505050505081565b600660009054906101000a900473ffffffffffffffffffffffffffffffffffffffff1681565b6002805461044d906105d4565b80601f0160208091040260200160405190810160405280929190818152602001828054610479906105d4565b80156104c65780601f1061049b576101008083540402835291602001916104c6565b820191906000526020600020905b8154815290600101906020018083116104a957829003601f168201915b505050505081565b6104d78161056f565b82525050565b60006104e882610553565b6104f2818561055e565b93506105028185602086016105a1565b61050b81610635565b840191505092915050565b600060208201905061052b60008301846104ce565b92915050565b6000602082019050818103600083015261054b81846104dd565b905092915050565b600081519050919050565b600082825260208201905092915050565b600061057a82610581565b9050919050565b600073ffffffffffffffffffffffffffffffffffffffff82169050919050565b60005b838110156105bf5780820151818401526020810190506105a4565b838111156105ce576000848401525b50505050565b600060028204905060018216806105ec57607f821691505b60208210811415610600576105ff610606565b5b50919050565b7f4e487b7100000000000000000000000000000000000000000000000000000000600052602260045260246000fd5b6000601f19601f830116905091905056fea26469706673582212202f2cd8b3020d2f29b770a4bfe884b41dcc8b090a43fb6eaeb973d1ec87451a3f64736f6c6343000804003360806040523480156200001157600080fd5b506040516200372638038062003726833981810160405281019062000037919062000197565b818181600090805190602001906200005192919062000075565b5080600190805190602001906200006a92919062000075565b50505050506200037a565b82805462000083906200029f565b90600052602060002090601f016020900481019282620000a75760008555620000f3565b82601f10620000c257805160ff1916838001178555620000f3565b82800160010185558215620000f3579182015b82811115620000f2578251825591602001919060010190620000d5565b5b50905062000102919062000106565b5090565b5b808211156200012157600081600090555060010162000107565b5090565b60006200013c620001368462000233565b6200020a565b9050828152602081018484840111156200015557600080fd5b6200016284828562000269565b509392505050565b600082601f8301126200017c57600080fd5b81516200018e84826020860162000125565b91505092915050565b60008060408385031215620001ab57600080fd5b600083015167ffffffffffffffff811115620001c657600080fd5b620001d4858286016200016a565b925050602083015167ffffffffffffffff811115620001f257600080fd5b62000200858286016200016a565b9150509250929050565b60006200021662000229565b9050620002248282620002d5565b919050565b6000604051905090565b600067ffffffffffffffff8211156200025157620002506200033a565b5b6200025c8262000369565b9050602081019050919050565b60005b83811015620002895780820151818401526020810190506200026c565b8381111562000299576000848401525b50505050565b60006002820490506001821680620002b857607f821691505b60208210811415620002cf57620002ce6200030b565b5b50919050565b620002e08262000369565b810181811067ffffffffffffffff821117156200030257620003016200033a565b5b80604052505050565b7f4e487b7100000000000000000000000000000000000000000000000000000000600052602260045260246000fd5b7f4e487b7100000000000000000000000000000000000000000000000000000000600052604160045260246000fd5b6000601f19601f8301169050919050565b61339c806200038a6000396000f3fe608060405234801561001057600080fd5b506004361061010b5760003560e01c806345576f94116100a257806395d89b411161007157806395d89b41146102f0578063a22cb4651461030e578063b88d4fde1461032a578063c87b56dd14610346578063e985e9c5146103765761010b565b806345576f94146102305780634f6ccce7146102605780636352211e1461029057806370a08231146102c05761010b565b806318160ddd116100de57806318160ddd146101aa57806323b872dd146101c85780632f745c59146101e457806342842e0e146102145761010b565b806301ffc9a71461011057806306fdde0314610140578063081812fc1461015e578063095ea7b31461018e575b600080fd5b61012a600480360381019061012591906122e4565b6103a6565b6040516101379190612771565b60405180910390f35b6101486103b7565b604051610155919061278c565b60405180910390f35b61017860048036038101906101739190612377565b610449565b604051610185919061270a565b60405180910390f35b6101a860048036038101906101a391906122a8565b6104ce565b005b6101b26105e6565b6040516101bf91906129ee565b60405180910390f35b6101e260048036038101906101dd91906121a2565b6105f3565b005b6101fe60048036038101906101f991906122a8565b610653565b60405161020b91906129ee565b60405180910390f35b61022e600480360381019061022991906121a2565b6106f8565b005b61024a60048036038101906102459190612336565b610718565b60405161025791906129ee565b60405180910390f35b61027a60048036038101906102759190612377565b61074f565b60405161028791906129ee565b60405180910390f35b6102aa60048036038101906102a59190612377565b6107e6565b6040516102b7919061270a565b60405180910390f35b6102da60048036038101906102d5919061213d565b610898565b6040516102e791906129ee565b60405180910390f35b6102f8610950565b604051610305919061278c565b60405180910390f35b6103286004803603810190610323919061226c565b6109e2565b005b610344600480360381019061033f91906121f1565b610b63565b005b610360600480360381019061035b9190612377565b610bc5565b60405161036d919061278c565b60405180910390f35b610390600480360381019061038b9190612166565b610bd6565b60405161039d9190612771565b60405180910390f35b60006103b182610c6a565b50919050565b6060600080546103c690612c44565b80601f01602080910402602001604051908101604052809291908181526020018280546103f290612c44565b801561043f5780601f106104145761010080835404028352916020019161043f565b820191906000526020600020905b81548152906001019060200180831161042257829003601f168201915b5050505050905090565b600061045482610ce4565b610493576040517f08c379a000000000000000000000000000000000000000000000000000000000815260040161048a9061292e565b60405180910390fd5b6004600083815260200190815260200160002060009054906101000a900473ffffffffffffffffffffffffffffffffffffffff169050919050565b60006104d9826107e6565b90508073ffffffffffffffffffffffffffffffffffffffff168373ffffffffffffffffffffffffffffffffffffffff16141561054a576040517f08c379a00000000000000000000000000000000000000000000000000000000081526004016105419061298e565b60405180910390fd5b8073ffffffffffffffffffffffffffffffffffffffff16610569610d50565b73ffffffffffffffffffffffffffffffffffffffff161480610598575061059781610592610d50565b610bd6565b5b6105d7576040517f08c379a00000000000000000000000000000000000000000000000000000000081526004016105ce9061286e565b60405180910390fd5b6105e18383610d58565b505050565b6000600980549050905090565b6106046105fe610d50565b82610e11565b610643576040517f08c379a000000000000000000000000000000000000000000000000000000000815260040161063a906129ae565b60405180910390fd5b61064e838383610eef565b505050565b600061065e83610898565b821061069f576040517f08c379a0000000000000000000000000000000000000000000000000000000008152600401610696906127ae565b60405180910390fd5b600760008473ffffffffffffffffffffffffffffffffffffffff1673ffffffffffffffffffffffffffffffffffffffff168152602001908152602001600020600083815260200190815260200160002054905092915050565b61071383838360405180602001604052806000815250610b63565b505050565b6000610724600b61114b565b6000610730600b611161565b905061073c338261116f565b610746818461133d565b80915050919050565b60006107596105e6565b821061079a576040517f08c379a0000000000000000000000000000000000000000000000000000000008152600401610791906129ce565b60405180910390fd5b600982815481106107d4577f4e487b7100000000000000000000000000000000000000000000000000000000600052603260045260246000fd5b90600052602060002001549050919050565b6000806002600084815260200190815260200160002060009054906101000a900473ffffffffffffffffffffffffffffffffffffffff169050600073ffffffffffffffffffffffffffffffffffffffff168173ffffffffffffffffffffffffffffffffffffffff16141561088f576040517f08c379a0000000000000000000000000000000000000000000000000000000008152600401610886906128ae565b60405180910390fd5b80915050919050565b60008073ffffffffffffffffffffffffffffffffffffffff168273ffffffffffffffffffffffffffffffffffffffff161415610909576040517f08c379a00000000000000000000000000000000000000000000000000000000081526004016109009061288e565b60405180910390fd5b600360008373ffffffffffffffffffffffffffffffffffffffff1673ffffffffffffffffffffffffffffffffffffffff168152602001908152602001600020549050919050565b60606001805461095f90612c44565b80601f016020809104026020016040519081016040528092919081815260200182805461098b90612c44565b80156109d85780601f106109ad576101008083540402835291602001916109d8565b820191906000526020600020905b8154815290600101906020018083116109bb57829003601f168201915b5050505050905090565b6109ea610d50565b73ffffffffffffffffffffffffffffffffffffffff168273ffffffffffffffffffffffffffffffffffffffff161415610a58576040517f08c379a0000000000000000000000000000000000000000000000000000000008152600401610a4f9061282e565b60405180910390fd5b8060056000610a65610d50565b73ffffffffffffffffffffffffffffffffffffffff1673ffffffffffffffffffffffffffffffffffffffff16815260200190815260200160002060008473ffffffffffffffffffffffffffffffffffffffff1673ffffffffffffffffffffffffffffffffffffffff16815260200190815260200160002060006101000a81548160ff0219169083151502179055508173ffffffffffffffffffffffffffffffffffffffff16610b12610d50565b73ffffffffffffffffffffffffffffffffffffffff167f17307eab39ab6107e8899845ad3d59bd9653f200f220920489ca2b5937696c3183604051610b579190612771565b60405180910390a35050565b610b74610b6e610d50565b83610e11565b610bb3576040517f08c379a0000000000000000000000000000000000000000000000000000000008152600401610baa906129ae565b60405180910390fd5b610bbf848484846113b1565b50505050565b6060610bd08261140d565b50919050565b6000600560008473ffffffffffffffffffffffffffffffffffffffff1673ffffffffffffffffffffffffffffffffffffffff16815260200190815260200160002060008373ffffffffffffffffffffffffffffffffffffffff1673ffffffffffffffffffffffffffffffffffffffff16815260200190815260200160002060009054906101000a900460ff16905092915050565b60007f780e9d63000000000000000000000000000000000000000000000000000000007bffffffffffffffffffffffffffffffffffffffffffffffffffffffff1916827bffffffffffffffffffffffffffffffffffffffffffffffffffffffff19161480610cdd5750610cdc8261155f565b5b9050919050565b60008073ffffffffffffffffffffffffffffffffffffffff166002600084815260200190815260200160002060009054906101000a900473ffffffffffffffffffffffffffffffffffffffff1673ffffffffffffffffffffffffffffffffffffffff1614159050919050565b600033905090565b816004600083815260200190815260200160002060006101000a81548173ffffffffffffffffffffffffffffffffffffffff021916908373ffffffffffffffffffffffffffffffffffffffff160217905550808273ffffffffffffffffffffffffffffffffffffffff16610dcb836107e6565b73ffffffffffffffffffffffffffffffffffffffff167f8c5be1e5ebec7d5bd14f71427d1e84f3dd0314c0f7b2291e5b200ac8c7c3b92560405160405180910390a45050565b6000610e1c82610ce4565b610e5b576040517f08c379a0000000000000000000000000000000000000000000000000000000008152600401610e529061284e565b60405180910390fd5b6000610e66836107e6565b90508073ffffffffffffffffffffffffffffffffffffffff168473ffffffffffffffffffffffffffffffffffffffff161480610ed557508373ffffffffffffffffffffffffffffffffffffffff16610ebd84610449565b73ffffffffffffffffffffffffffffffffffffffff16145b80610ee65750610ee58185610bd6565b5b91505092915050565b8273ffffffffffffffffffffffffffffffffffffffff16610f0f826107e6565b73ffffffffffffffffffffffffffffffffffffffff1614610f65576040517f08c379a0000000000000000000000000000000000000000000000000000000008152600401610f5c9061294e565b60405180910390fd5b600073ffffffffffffffffffffffffffffffffffffffff168273ffffffffffffffffffffffffffffffffffffffff161415610fd5576040517f08c379a0000000000000000000000000000000000000000000000000000000008152600401610fcc9061280e565b60405180910390fd5b610fe0838383611641565b610feb600082610d58565b6001600360008573ffffffffffffffffffffffffffffffffffffffff1673ffffffffffffffffffffffffffffffffffffffff168152602001908152602001600020600082825461103b9190612b5a565b925050819055506001600360008473ffffffffffffffffffffffffffffffffffffffff1673ffffffffffffffffffffffffffffffffffffffff16815260200190815260200160002060008282546110929190612ad3565b92505081905550816002600083815260200190815260200160002060006101000a81548173ffffffffffffffffffffffffffffffffffffffff021916908373ffffffffffffffffffffffffffffffffffffffff160217905550808273ffffffffffffffffffffffffffffffffffffffff168473ffffffffffffffffffffffffffffffffffffffff167fddf252ad1be2c89b69c2b068fc378daa952ba7f163c4a11628f55a4df523b3ef60405160405180910390a4505050565b6001816000016000828254019250508190555050565b600081600001549050919050565b600073ffffffffffffffffffffffffffffffffffffffff168273ffffffffffffffffffffffffffffffffffffffff1614156111df576040517f08c379a00000000000000000000000000000000000000000000000000000000081526004016111d6906128ee565b60405180910390fd5b6111e881610ce4565b15611228576040517f08c379a000000000000000000000000000000000000000000000000000000000815260040161121f906127ee565b60405180910390fd5b61123460008383611641565b6001600360008473ffffffffffffffffffffffffffffffffffffffff1673ffffffffffffffffffffffffffffffffffffffff16815260200190815260200160002060008282546112849190612ad3565b92505081905550816002600083815260200190815260200160002060006101000a81548173ffffffffffffffffffffffffffffffffffffffff021916908373ffffffffffffffffffffffffffffffffffffffff160217905550808273ffffffffffffffffffffffffffffffffffffffff16600073ffffffffffffffffffffffffffffffffffffffff167fddf252ad1be2c89b69c2b068fc378daa952ba7f163c4a11628f55a4df523b3ef60405160405180910390a45050565b61134682610ce4565b611385576040517f08c379a000000000000000000000000000000000000000000000000000000000815260040161137c906128ce565b60405180910390fd5b806006600084815260200190815260200160002090805190602001906113ac929190611f61565b505050565b6113bc848484610eef565b6113c884848484611651565b611407576040517f08c379a00000000000000000000000000000000000000000000000000000000081526004016113fe906127ce565b60405180910390fd5b50505050565b606061141882610ce4565b611457576040517f08c379a000000000000000000000000000000000000000000000000000000000815260040161144e9061290e565b60405180910390fd5b600060066000848152602001908152602001600020805461147790612c44565b80601f01602080910402602001604051908101604052809291908181526020018280546114a390612c44565b80156114f05780601f106114c5576101008083540402835291602001916114f0565b820191906000526020600020905b8154815290600101906020018083116114d357829003601f168201915b5050505050905060006115016117e8565b905060008151141561151757819250505061155a565b60008251111561154c5780826040516020016115349291906126e6565b6040516020818303038152906040529250505061155a565b611555846117ff565b925050505b919050565b60007f80ac58cd000000000000000000000000000000000000000000000000000000007bffffffffffffffffffffffffffffffffffffffffffffffffffffffff1916827bffffffffffffffffffffffffffffffffffffffffffffffffffffffff1916148061162a57507f5b5e139f000000000000000000000000000000000000000000000000000000007bffffffffffffffffffffffffffffffffffffffffffffffffffffffff1916827bffffffffffffffffffffffffffffffffffffffffffffffffffffffff1916145b8061163a5750611639826118a6565b5b9050919050565b61164c838383611910565b505050565b60006116728473ffffffffffffffffffffffffffffffffffffffff16611a24565b156117db578373ffffffffffffffffffffffffffffffffffffffff1663150b7a0261169b610d50565b8786866040518563ffffffff1660e01b81526004016116bd9493929190612725565b602060405180830381600087803b1580156116d757600080fd5b505af192505050801561170857506040513d601f19601f82011682018060405250810190611705919061230d565b60015b61178b573d8060008114611738576040519150601f19603f3d011682016040523d82523d6000602084013e61173d565b606091505b50600081511415611783576040517f08c379a000000000000000000000000000000000000000000000000000000000815260040161177a906127ce565b60405180910390fd5b805181602001fd5b63150b7a0260e01b7bffffffffffffffffffffffffffffffffffffffffffffffffffffffff1916817bffffffffffffffffffffffffffffffffffffffffffffffffffffffff1916149150506117e0565b600190505b949350505050565b606060405180602001604052806000815250905090565b606061180a82610ce4565b611849576040517f08c379a00000000000000000000000000000000000000000000000000000000081526004016118409061296e565b60405180910390fd5b60006118536117e8565b90506000815111611873576040518060200160405280600081525061189e565b8061187d84611a37565b60405160200161188e9291906126e6565b6040516020818303038152906040525b915050919050565b60007f01ffc9a7000000000000000000000000000000000000000000000000000000007bffffffffffffffffffffffffffffffffffffffffffffffffffffffff1916827bffffffffffffffffffffffffffffffffffffffffffffffffffffffff1916149050919050565b61191b838383611be4565b600073ffffffffffffffffffffffffffffffffffffffff168373ffffffffffffffffffffffffffffffffffffffff16141561195e5761195981611be9565b61199d565b8173ffffffffffffffffffffffffffffffffffffffff168373ffffffffffffffffffffffffffffffffffffffff161461199c5761199b8382611c32565b5b5b600073ffffffffffffffffffffffffffffffffffffffff168273ffffffffffffffffffffffffffffffffffffffff1614156119e0576119db81611d9f565b611a1f565b8273ffffffffffffffffffffffffffffffffffffffff168273ffffffffffffffffffffffffffffffffffffffff1614611a1e57611a1d8282611ee2565b5b5b505050565b600080823b905060008111915050919050565b60606000821415611a7f576040518060400160405280600181526020017f30000000000000000000000000000000000000000000000000000000000000008152509050611bdf565b600082905060005b60008214611ab1578080611a9a90612ca7565b915050600a82611aaa9190612b29565b9150611a87565b60008167ffffffffffffffff811115611af3577f4e487b7100000000000000000000000000000000000000000000000000000000600052604160045260246000fd5b6040519080825280601f01601f191660200182016040528015611b255781602001600182028036833780820191505090505b5090505b60008514611bd857600182611b3e9190612b5a565b9150600a85611b4d9190612cf0565b6030611b599190612ad3565b60f81b818381518110611b95577f4e487b7100000000000000000000000000000000000000000000000000000000600052603260045260246000fd5b60200101907effffffffffffffffffffffffffffffffffffffffffffffffffffffffffffff1916908160001a905350600a85611bd19190612b29565b9450611b29565b8093505050505b919050565b505050565b600980549050600a600083815260200190815260200160002081905550600981908060018154018082558091505060019003906000526020600020016000909190919091505550565b60006001611c3f84610898565b611c499190612b5a565b9050600060086000848152602001908152602001600020549050818114611d2e576000600760008673ffffffffffffffffffffffffffffffffffffffff1673ffffffffffffffffffffffffffffffffffffffff168152602001908152602001600020600084815260200190815260200160002054905080600760008773ffffffffffffffffffffffffffffffffffffffff1673ffffffffffffffffffffffffffffffffffffffff168152602001908152602001600020600084815260200190815260200160002081905550816008600083815260200190815260200160002081905550505b6008600084815260200190815260200160002060009055600760008573ffffffffffffffffffffffffffffffffffffffff1673ffffffffffffffffffffffffffffffffffffffff16815260200190815260200160002060008381526020019081526020016000206000905550505050565b60006001600980549050611db39190612b5a565b90506000600a6000848152602001908152602001600020549050600060098381548110611e09577f4e487b7100000000000000000000000000000000000000000000000000000000600052603260045260246000fd5b906000526020600020015490508060098381548110611e51577f4e487b7100000000000000000000000000000000000000000000000000000000600052603260045260246000fd5b906000526020600020018190555081600a600083815260200190815260200160002081905550600a6000858152602001908152602001600020600090556009805480611ec6577f4e487b7100000000000000000000000000000000000000000000000000000000600052603160045260246000fd5b6001900381819060005260206000200160009055905550505050565b6000611eed83610898565b905081600760008573ffffffffffffffffffffffffffffffffffffffff1673ffffffffffffffffffffffffffffffffffffffff168152602001908152602001600020600083815260200190815260200160002081905550806008600084815260200190815260200160002081905550505050565b828054611f6d90612c44565b90600052602060002090601f016020900481019282611f8f5760008555611fd6565b82601f10611fa857805160ff1916838001178555611fd6565b82800160010185558215611fd6579182015b82811115611fd5578251825591602001919060010190611fba565b5b509050611fe39190611fe7565b5090565b5b80821115612000576000816000905550600101611fe8565b5090565b600061201761201284612a2e565b612a09565b90508281526020810184848401111561202f57600080fd5b61203a848285612c02565b509392505050565b600061205561205084612a5f565b612a09565b90508281526020810184848401111561206d57600080fd5b612078848285612c02565b509392505050565b60008135905061208f8161330a565b92915050565b6000813590506120a481613321565b92915050565b6000813590506120b981613338565b92915050565b6000815190506120ce81613338565b92915050565b600082601f8301126120e557600080fd5b81356120f5848260208601612004565b91505092915050565b600082601f83011261210f57600080fd5b813561211f848260208601612042565b91505092915050565b6000813590506121378161334f565b92915050565b60006020828403121561214f57600080fd5b600061215d84828501612080565b91505092915050565b6000806040838503121561217957600080fd5b600061218785828601612080565b925050602061219885828601612080565b9150509250929050565b6000806000606084860312156121b757600080fd5b60006121c586828701612080565b93505060206121d686828701612080565b92505060406121e786828701612128565b9150509250925092565b6000806000806080858703121561220757600080fd5b600061221587828801612080565b945050602061222687828801612080565b935050604061223787828801612128565b925050606085013567ffffffffffffffff81111561225457600080fd5b612260878288016120d4565b91505092959194509250565b6000806040838503121561227f57600080fd5b600061228d85828601612080565b925050602061229e85828601612095565b9150509250929050565b600080604083850312156122bb57600080fd5b60006122c985828601612080565b92505060206122da85828601612128565b9150509250929050565b6000602082840312156122f657600080fd5b6000612304848285016120aa565b91505092915050565b60006020828403121561231f57600080fd5b600061232d848285016120bf565b91505092915050565b60006020828403121561234857600080fd5b600082013567ffffffffffffffff81111561236257600080fd5b61236e848285016120fe565b91505092915050565b60006020828403121561238957600080fd5b600061239784828501612128565b91505092915050565b6123a981612b8e565b82525050565b6123b881612ba0565b82525050565b60006123c982612a90565b6123d38185612aa6565b93506123e3818560208601612c11565b6123ec81612ddd565b840191505092915050565b600061240282612a9b565b61240c8185612ab7565b935061241c818560208601612c11565b61242581612ddd565b840191505092915050565b600061243b82612a9b565b6124458185612ac8565b9350612455818560208601612c11565b80840191505092915050565b600061246e602b83612ab7565b915061247982612dee565b604082019050919050565b6000612491603283612ab7565b915061249c82612e3d565b604082019050919050565b60006124b4601c83612ab7565b91506124bf82612e8c565b602082019050919050565b60006124d7602483612ab7565b91506124e282612eb5565b604082019050919050565b60006124fa601983612ab7565b915061250582612f04565b602082019050919050565b600061251d602c83612ab7565b915061252882612f2d565b604082019050919050565b6000612540603883612ab7565b915061254b82612f7c565b604082019050919050565b6000612563602a83612ab7565b915061256e82612fcb565b604082019050919050565b6000612586602983612ab7565b91506125918261301a565b604082019050919050565b60006125a9602e83612ab7565b91506125b482613069565b604082019050919050565b60006125cc602083612ab7565b91506125d7826130b8565b602082019050919050565b60006125ef603183612ab7565b91506125fa826130e1565b604082019050919050565b6000612612602c83612ab7565b915061261d82613130565b604082019050919050565b6000612635602983612ab7565b91506126408261317f565b604082019050919050565b6000612658602f83612ab7565b9150612663826131ce565b604082019050919050565b600061267b602183612ab7565b91506126868261321d565b604082019050919050565b600061269e603183612ab7565b91506126a98261326c565b604082019050919050565b60006126c1602c83612ab7565b91506126cc826132bb565b604082019050919050565b6126e081612bf8565b82525050565b60006126f28285612430565b91506126fe8284612430565b91508190509392505050565b600060208201905061271f60008301846123a0565b92915050565b600060808201905061273a60008301876123a0565b61274760208301866123a0565b61275460408301856126d7565b818103606083015261276681846123be565b905095945050505050565b600060208201905061278660008301846123af565b92915050565b600060208201905081810360008301526127a681846123f7565b905092915050565b600060208201905081810360008301526127c781612461565b9050919050565b600060208201905081810360008301526127e781612484565b9050919050565b60006020820190508181036000830152612807816124a7565b9050919050565b60006020820190508181036000830152612827816124ca565b9050919050565b60006020820190508181036000830152612847816124ed565b9050919050565b6000602082019050818103600083015261286781612510565b9050919050565b6000602082019050818103600083015261288781612533565b9050919050565b600060208201905081810360008301526128a781612556565b9050919050565b600060208201905081810360008301526128c781612579565b9050919050565b600060208201905081810360008301526128e78161259c565b9050919050565b60006020820190508181036000830152612907816125bf565b9050919050565b60006020820190508181036000830152612927816125e2565b9050919050565b6000602082019050818103600083015261294781612605565b9050919050565b6000602082019050818103600083015261296781612628565b9050919050565b600060208201905081810360008301526129878161264b565b9050919050565b600060208201905081810360008301526129a78161266e565b9050919050565b600060208201905081810360008301526129c781612691565b9050919050565b600060208201905081810360008301526129e7816126b4565b9050919050565b6000602082019050612a0360008301846126d7565b92915050565b6000612a13612a24565b9050612a1f8282612c76565b919050565b6000604051905090565b600067ffffffffffffffff821115612a4957612a48612dae565b5b612a5282612ddd565b9050602081019050919050565b600067ffffffffffffffff821115612a7a57612a79612dae565b5b612a8382612ddd565b9050602081019050919050565b600081519050919050565b600081519050919050565b600082825260208201905092915050565b600082825260208201905092915050565b600081905092915050565b6000612ade82612bf8565b9150612ae983612bf8565b9250827fffffffffffffffffffffffffffffffffffffffffffffffffffffffffffffffff03821115612b1e57612b1d612d21565b5b828201905092915050565b6000612b3482612bf8565b9150612b3f83612bf8565b925082612b4f57612b4e612d50565b5b828204905092915050565b6000612b6582612bf8565b9150612b7083612bf8565b925082821015612b8357612b82612d21565b5b828203905092915050565b6000612b9982612bd8565b9050919050565b60008115159050919050565b60007fffffffff0000000000000000000000000000000000000000000000000000000082169050919050565b600073ffffffffffffffffffffffffffffffffffffffff82169050919050565b6000819050919050565b82818337600083830152505050565b60005b83811015612c2f578082015181840152602081019050612c14565b83811115612c3e576000848401525b50505050565b60006002820490506001821680612c5c57607f821691505b60208210811415612c7057612c6f612d7f565b5b50919050565b612c7f82612ddd565b810181811067ffffffffffffffff82111715612c9e57612c9d612dae565b5b80604052505050565b6000612cb282612bf8565b91507fffffffffffffffffffffffffffffffffffffffffffffffffffffffffffffffff821415612ce557612ce4612d21565b5b600182019050919050565b6000612cfb82612bf8565b9150612d0683612bf8565b925082612d1657612d15612d50565b5b828206905092915050565b7f4e487b7100000000000000000000000000000000000000000000000000000000600052601160045260246000fd5b7f4e487b7100000000000000000000000000000000000000000000000000000000600052601260045260246000fd5b7f4e487b7100000000000000000000000000000000000000000000000000000000600052602260045260246000fd5b7f4e487b7100000000000000000000000000000000000000000000000000000000600052604160045260246000fd5b6000601f19601f8301169050919050565b7f455243373231456e756d657261626c653a206f776e657220696e646578206f7560008201527f74206f6620626f756e6473000000000000000000000000000000000000000000602082015250565b7f4552433732313a207472616e7366657220746f206e6f6e20455243373231526560008201527f63656976657220696d706c656d656e7465720000000000000000000000000000602082015250565b7f4552433732313a20746f6b656e20616c7265616479206d696e74656400000000600082015250565b7f4552433732313a207472616e7366657220746f20746865207a65726f2061646460008201527f7265737300000000000000000000000000000000000000000000000000000000602082015250565b7f4552433732313a20617070726f766520746f2063616c6c657200000000000000600082015250565b7f4552433732313a206f70657261746f7220717565727920666f72206e6f6e657860008201527f697374656e7420746f6b656e0000000000000000000000000000000000000000602082015250565b7f4552433732313a20617070726f76652063616c6c6572206973206e6f74206f7760008201527f6e6572206e6f7220617070726f76656420666f7220616c6c0000000000000000602082015250565b7f4552433732313a2062616c616e636520717565727920666f7220746865207a6560008201527f726f206164647265737300000000000000000000000000000000000000000000602082015250565b7f4552433732313a206f776e657220717565727920666f72206e6f6e657869737460008201527f656e7420746f6b656e0000000000000000000000000000000000000000000000602082015250565b7f45524337323155524953746f726167653a2055524920736574206f66206e6f6e60008201527f6578697374656e7420746f6b656e000000000000000000000000000000000000602082015250565b7f4552433732313a206d696e7420746f20746865207a65726f2061646472657373600082015250565b7f45524337323155524953746f726167653a2055524920717565727920666f722060008201527f6e6f6e6578697374656e7420746f6b656e000000000000000000000000000000602082015250565b7f4552433732313a20617070726f76656420717565727920666f72206e6f6e657860008201527f697374656e7420746f6b656e0000000000000000000000000000000000000000602082015250565b7f4552433732313a207472616e73666572206f6620746f6b656e2074686174206960008201527f73206e6f74206f776e0000000000000000000000000000000000000000000000602082015250565b7f4552433732314d657461646174613a2055524920717565727920666f72206e6f60008201527f6e6578697374656e7420746f6b656e0000000000000000000000000000000000602082015250565b7f4552433732313a20617070726f76616c20746f2063757272656e74206f776e6560008201527f7200000000000000000000000000000000000000000000000000000000000000602082015250565b7f4552433732313a207472616e736665722063616c6c6572206973206e6f74206f60008201527f776e6572206e6f7220617070726f766564000000000000000000000000000000602082015250565b7f455243373231456e756d657261626c653a20676c6f62616c20696e646578206f60008201527f7574206f6620626f756e64730000000000000000000000000000000000000000602082015250565b61331381612b8e565b811461331e57600080fd5b50565b61332a81612ba0565b811461333557600080fd5b50565b61334181612bac565b811461334c57600080fd5b50565b61335881612bf8565b811461336357600080fd5b5056fea264697066735822122029f794daeec5f233d064fb5880210f3b7545ab2c88664fd8e00874f18ef55e2064736f6c63430008040033",
  "linkReferences": {},
  "deployedLinkReferences": {}
}