{
  "_format": "hh-sol-artifact-1",
  "contractName": "NFT",
  "sourceName": "contracts/NFT.sol",
  "abi": [
    {
      "inputs": [
        {
          "internalType": "string",
          "name": "collectionName",
          "type": "string"
        },
        {
          "internalType": "string",
          "name": "collectionSymbol",
          "type": "string"
        }
      ],
      "stateMutability": "nonpayable",
      "type": "constructor"
    },
    {
      "anonymous": false,
      "inputs": [
        {
          "indexed": true,
          "internalType": "address",
          "name": "owner",
          "type": "address"
        },
        {
          "indexed": true,
          "internalType": "address",
          "name": "approved",
          "type": "address"
        },
        {
          "indexed": true,
          "internalType": "uint256",
          "name": "tokenId",
          "type": "uint256"
        }
      ],
      "name": "Approval",
      "type": "event"
    },
    {
      "anonymous": false,
      "inputs": [
        {
          "indexed": true,
          "internalType": "address",
          "name": "owner",
          "type": "address"
        },
        {
          "indexed": true,
          "internalType": "address",
          "name": "operator",
          "type": "address"
        },
        {
          "indexed": false,
          "internalType": "bool",
          "name": "approved",
          "type": "bool"
        }
      ],
      "name": "ApprovalForAll",
      "type": "event"
    },
    {
      "anonymous": false,
      "inputs": [
        {
          "indexed": true,
          "internalType": "address",
          "name": "from",
          "type": "address"
        },
        {
          "indexed": true,
          "internalType": "address",
          "name": "to",
          "type": "address"
        },
        {
          "indexed": true,
          "internalType": "uint256",
          "name": "tokenId",
          "type": "uint256"
        }
      ],
      "name": "Transfer",
      "type": "event"
    },
    {
      "inputs": [
        {
          "internalType": "address",
          "name": "to",
          "type": "address"
        },
        {
          "internalType": "uint256",
          "name": "tokenId",
          "type": "uint256"
        }
      ],
      "name": "approve",
      "outputs": [],
      "stateMutability": "nonpayable",
      "type": "function"
    },
    {
      "inputs": [
        {
          "internalType": "address",
          "name": "owner",
          "type": "address"
        }
      ],
      "name": "balanceOf",
      "outputs": [
        {
          "internalType": "uint256",
          "name": "",
          "type": "uint256"
        }
      ],
      "stateMutability": "view",
      "type": "function"
    },
    {
      "inputs": [
        {
          "internalType": "string",
          "name": "_tokenURI",
          "type": "string"
        }
      ],
      "name": "createToken",
      "outputs": [
        {
          "internalType": "uint256",
          "name": "",
          "type": "uint256"
        }
      ],
      "stateMutability": "nonpayable",
      "type": "function"
    },
    {
      "inputs": [
        {
          "internalType": "uint256",
          "name": "tokenId",
          "type": "uint256"
        }
      ],
      "name": "getApproved",
      "outputs": [
        {
          "internalType": "address",
          "name": "",
          "type": "address"
        }
      ],
      "stateMutability": "view",
      "type": "function"
    },
    {
      "inputs": [
        {
          "internalType": "address",
          "name": "owner",
          "type": "address"
        },
        {
          "internalType": "address",
          "name": "operator",
          "type": "address"
        }
      ],
      "name": "isApprovedForAll",
      "outputs": [
        {
          "internalType": "bool",
          "name": "",
          "type": "bool"
        }
      ],
      "stateMutability": "view",
      "type": "function"
    },
    {
      "inputs": [
        {
          "internalType": "address",
          "name": "spender",
          "type": "address"
        },
        {
          "internalType": "uint256",
          "name": "tokenId",
          "type": "uint256"
        }
      ],
      "name": "isApprovedToMarketplace",
      "outputs": [
        {
          "internalType": "bool",
          "name": "",
          "type": "bool"
        }
      ],
      "stateMutability": "view",
      "type": "function"
    },
    {
      "inputs": [],
      "name": "name",
      "outputs": [
        {
          "internalType": "string",
          "name": "",
          "type": "string"
        }
      ],
      "stateMutability": "view",
      "type": "function"
    },
    {
      "inputs": [
        {
          "internalType": "uint256",
          "name": "tokenId",
          "type": "uint256"
        }
      ],
      "name": "ownerOf",
      "outputs": [
        {
          "internalType": "address",
          "name": "",
          "type": "address"
        }
      ],
      "stateMutability": "view",
      "type": "function"
    },
    {
      "inputs": [
        {
          "internalType": "address",
          "name": "from",
          "type": "address"
        },
        {
          "internalType": "address",
          "name": "to",
          "type": "address"
        },
        {
          "internalType": "uint256",
          "name": "tokenId",
          "type": "uint256"
        }
      ],
      "name": "safeTransferFrom",
      "outputs": [],
      "stateMutability": "nonpayable",
      "type": "function"
    },
    {
      "inputs": [
        {
          "internalType": "address",
          "name": "from",
          "type": "address"
        },
        {
          "internalType": "address",
          "name": "to",
          "type": "address"
        },
        {
          "internalType": "uint256",
          "name": "tokenId",
          "type": "uint256"
        },
        {
          "internalType": "bytes",
          "name": "_data",
          "type": "bytes"
        }
      ],
      "name": "safeTransferFrom",
      "outputs": [],
      "stateMutability": "nonpayable",
      "type": "function"
    },
    {
      "inputs": [
        {
          "internalType": "address",
          "name": "operator",
          "type": "address"
        },
        {
          "internalType": "bool",
          "name": "approved",
          "type": "bool"
        }
      ],
      "name": "setApprovalForAll",
      "outputs": [],
      "stateMutability": "nonpayable",
      "type": "function"
    },
    {
      "inputs": [
        {
          "internalType": "bytes4",
          "name": "interfaceId",
          "type": "bytes4"
        }
      ],
      "name": "supportsInterface",
      "outputs": [
        {
          "internalType": "bool",
          "name": "",
          "type": "bool"
        }
      ],
      "stateMutability": "view",
      "type": "function"
    },
    {
      "inputs": [],
      "name": "symbol",
      "outputs": [
        {
          "internalType": "string",
          "name": "",
          "type": "string"
        }
      ],
      "stateMutability": "view",
      "type": "function"
    },
    {
      "inputs": [
        {
          "internalType": "uint256",
          "name": "index",
          "type": "uint256"
        }
      ],
      "name": "tokenByIndex",
      "outputs": [
        {
          "internalType": "uint256",
          "name": "",
          "type": "uint256"
        }
      ],
      "stateMutability": "view",
      "type": "function"
    },
    {
      "inputs": [
        {
          "internalType": "address",
          "name": "owner",
          "type": "address"
        },
        {
          "internalType": "uint256",
          "name": "index",
          "type": "uint256"
        }
      ],
      "name": "tokenOfOwnerByIndex",
      "outputs": [
        {
          "internalType": "uint256",
          "name": "",
          "type": "uint256"
        }
      ],
      "stateMutability": "view",
      "type": "function"
    },
    {
      "inputs": [
        {
          "internalType": "uint256",
          "name": "tokenId",
          "type": "uint256"
        }
      ],
      "name": "tokenURI",
      "outputs": [
        {
          "internalType": "string",
          "name": "",
          "type": "string"
        }
      ],
      "stateMutability": "view",
      "type": "function"
    },
    {
      "inputs": [],
      "name": "totalSupply",
      "outputs": [
        {
          "internalType": "uint256",
          "name": "",
          "type": "uint256"
        }
      ],
      "stateMutability": "view",
      "type": "function"
    },
    {
      "inputs": [
        {
          "internalType": "address",
          "name": "from",
          "type": "address"
        },
        {
          "internalType": "address",
          "name": "to",
          "type": "address"
        },
        {
          "internalType": "uint256",
          "name": "tokenId",
          "type": "uint256"
        }
      ],
      "name": "transferFrom",
      "outputs": [],
      "stateMutability": "nonpayable",
      "type": "function"
    }
  ],
  "bytecode": "0x60806040523480156200001157600080fd5b50604051620030f7380380620030f7833981810160405281019062000037919062000197565b818181600090805190602001906200005192919062000075565b5080600190805190602001906200006a92919062000075565b50505050506200037a565b82805462000083906200029f565b90600052602060002090601f016020900481019282620000a75760008555620000f3565b82601f10620000c257805160ff1916838001178555620000f3565b82800160010185558215620000f3579182015b82811115620000f2578251825591602001919060010190620000d5565b5b50905062000102919062000106565b5090565b5b808211156200012157600081600090555060010162000107565b5090565b60006200013c620001368462000233565b6200020a565b9050828152602081018484840111156200015557600080fd5b6200016284828562000269565b509392505050565b600082601f8301126200017c57600080fd5b81516200018e84826020860162000125565b91505092915050565b60008060408385031215620001ab57600080fd5b600083015167ffffffffffffffff811115620001c657600080fd5b620001d4858286016200016a565b925050602083015167ffffffffffffffff811115620001f257600080fd5b62000200858286016200016a565b9150509250929050565b60006200021662000229565b9050620002248282620002d5565b919050565b6000604051905090565b600067ffffffffffffffff8211156200025157620002506200033a565b5b6200025c8262000369565b9050602081019050919050565b60005b83811015620002895780820151818401526020810190506200026c565b8381111562000299576000848401525b50505050565b60006002820490506001821680620002b857607f821691505b60208210811415620002cf57620002ce6200030b565b5b50919050565b620002e08262000369565b810181811067ffffffffffffffff821117156200030257620003016200033a565b5b80604052505050565b7f4e487b7100000000000000000000000000000000000000000000000000000000600052602260045260246000fd5b7f4e487b7100000000000000000000000000000000000000000000000000000000600052604160045260246000fd5b6000601f19601f8301169050919050565b612d6d806200038a6000396000f3fe608060405234801561001057600080fd5b50600436106101165760003560e01c806349aa82e1116100a257806395d89b411161007157806395d89b411461032b578063a22cb46514610349578063b88d4fde14610365578063c87b56dd14610381578063e985e9c5146103b157610116565b806349aa82e11461026b5780634f6ccce71461029b5780636352211e146102cb57806370a08231146102fb57610116565b806318160ddd116100e957806318160ddd146101b557806323b872dd146101d35780632f745c59146101ef57806342842e0e1461021f57806345576f941461023b57610116565b806301ffc9a71461011b57806306fdde031461014b578063081812fc14610169578063095ea7b314610199575b600080fd5b61013560048036038101906101309190611fa5565b6103e1565b6040516101429190612374565b60405180910390f35b6101536103f3565b604051610160919061238f565b60405180910390f35b610183600480360381019061017e9190612038565b610485565b604051610190919061230d565b60405180910390f35b6101b360048036038101906101ae9190611f69565b61050a565b005b6101bd610622565b6040516101ca9190612591565b60405180910390f35b6101ed60048036038101906101e89190611e63565b61062f565b005b61020960048036038101906102049190611f69565b61068f565b6040516102169190612591565b60405180910390f35b61023960048036038101906102349190611e63565b610734565b005b61025560048036038101906102509190611ff7565b610754565b6040516102629190612591565b60405180910390f35b61028560048036038101906102809190611f69565b6107a9565b6040516102929190612374565b60405180910390f35b6102b560048036038101906102b09190612038565b6107bd565b6040516102c29190612591565b60405180910390f35b6102e560048036038101906102e09190612038565b610854565b6040516102f2919061230d565b60405180910390f35b61031560048036038101906103109190611dfe565b610906565b6040516103229190612591565b60405180910390f35b6103336109be565b604051610340919061238f565b60405180910390f35b610363600480360381019061035e9190611f2d565b610a50565b005b61037f600480360381019061037a9190611eb2565b610bd1565b005b61039b60048036038101906103969190612038565b610c33565b6040516103a8919061238f565b60405180910390f35b6103cb60048036038101906103c69190611e27565b610cd8565b6040516103d89190612374565b60405180910390f35b60006103ec82610d6c565b9050919050565b606060008054610402906127ab565b80601f016020809104026020016040519081016040528092919081815260200182805461042e906127ab565b801561047b5780601f106104505761010080835404028352916020019161047b565b820191906000526020600020905b81548152906001019060200180831161045e57829003601f168201915b5050505050905090565b600061049082610de6565b6104cf576040517f08c379a00000000000000000000000000000000000000000000000000000000081526004016104c6906124f1565b60405180910390fd5b6004600083815260200190815260200160002060009054906101000a900473ffffffffffffffffffffffffffffffffffffffff169050919050565b600061051582610854565b90508073ffffffffffffffffffffffffffffffffffffffff168373ffffffffffffffffffffffffffffffffffffffff161415610586576040517f08c379a000000000000000000000000000000000000000000000000000000000815260040161057d90612531565b60405180910390fd5b8073ffffffffffffffffffffffffffffffffffffffff166105a5610e52565b73ffffffffffffffffffffffffffffffffffffffff1614806105d457506105d3816105ce610e52565b610cd8565b5b610613576040517f08c379a000000000000000000000000000000000000000000000000000000000815260040161060a90612471565b60405180910390fd5b61061d8383610e5a565b505050565b6000600880549050905090565b61064061063a610e52565b82610f13565b61067f576040517f08c379a000000000000000000000000000000000000000000000000000000000815260040161067690612551565b60405180910390fd5b61068a838383610ff1565b505050565b600061069a83610906565b82106106db576040517f08c379a00000000000000000000000000000000000000000000000000000000081526004016106d2906123b1565b60405180910390fd5b600660008473ffffffffffffffffffffffffffffffffffffffff1673ffffffffffffffffffffffffffffffffffffffff168152602001908152602001600020600083815260200190815260200160002054905092915050565b61074f83838360405180602001604052806000815250610bd1565b505050565b6000610760600a61124d565b600061076c600a611263565b90506107783382611271565b82600c6000838152602001908152602001600020908051906020019061079f929190611c22565b5080915050919050565b60006107b58383610f13565b905092915050565b60006107c7610622565b8210610808576040517f08c379a00000000000000000000000000000000000000000000000000000000081526004016107ff90612571565b60405180910390fd5b60088281548110610842577f4e487b7100000000000000000000000000000000000000000000000000000000600052603260045260246000fd5b90600052602060002001549050919050565b6000806002600084815260200190815260200160002060009054906101000a900473ffffffffffffffffffffffffffffffffffffffff169050600073ffffffffffffffffffffffffffffffffffffffff168173ffffffffffffffffffffffffffffffffffffffff1614156108fd576040517f08c379a00000000000000000000000000000000000000000000000000000000081526004016108f4906124b1565b60405180910390fd5b80915050919050565b60008073ffffffffffffffffffffffffffffffffffffffff168273ffffffffffffffffffffffffffffffffffffffff161415610977576040517f08c379a000000000000000000000000000000000000000000000000000000000815260040161096e90612491565b60405180910390fd5b600360008373ffffffffffffffffffffffffffffffffffffffff1673ffffffffffffffffffffffffffffffffffffffff168152602001908152602001600020549050919050565b6060600180546109cd906127ab565b80601f01602080910402602001604051908101604052809291908181526020018280546109f9906127ab565b8015610a465780601f10610a1b57610100808354040283529160200191610a46565b820191906000526020600020905b815481529060010190602001808311610a2957829003601f168201915b5050505050905090565b610a58610e52565b73ffffffffffffffffffffffffffffffffffffffff168273ffffffffffffffffffffffffffffffffffffffff161415610ac6576040517f08c379a0000000000000000000000000000000000000000000000000000000008152600401610abd90612431565b60405180910390fd5b8060056000610ad3610e52565b73ffffffffffffffffffffffffffffffffffffffff1673ffffffffffffffffffffffffffffffffffffffff16815260200190815260200160002060008473ffffffffffffffffffffffffffffffffffffffff1673ffffffffffffffffffffffffffffffffffffffff16815260200190815260200160002060006101000a81548160ff0219169083151502179055508173ffffffffffffffffffffffffffffffffffffffff16610b80610e52565b73ffffffffffffffffffffffffffffffffffffffff167f17307eab39ab6107e8899845ad3d59bd9653f200f220920489ca2b5937696c3183604051610bc59190612374565b60405180910390a35050565b610be2610bdc610e52565b83610f13565b610c21576040517f08c379a0000000000000000000000000000000000000000000000000000000008152600401610c1890612551565b60405180910390fd5b610c2d8484848461143f565b50505050565b6060600c60008381526020019081526020016000208054610c53906127ab565b80601f0160208091040260200160405190810160405280929190818152602001828054610c7f906127ab565b8015610ccc5780601f10610ca157610100808354040283529160200191610ccc565b820191906000526020600020905b815481529060010190602001808311610caf57829003601f168201915b50505050509050919050565b6000600560008473ffffffffffffffffffffffffffffffffffffffff1673ffffffffffffffffffffffffffffffffffffffff16815260200190815260200160002060008373ffffffffffffffffffffffffffffffffffffffff1673ffffffffffffffffffffffffffffffffffffffff16815260200190815260200160002060009054906101000a900460ff16905092915050565b60007f780e9d63000000000000000000000000000000000000000000000000000000007bffffffffffffffffffffffffffffffffffffffffffffffffffffffff1916827bffffffffffffffffffffffffffffffffffffffffffffffffffffffff19161480610ddf5750610dde8261149b565b5b9050919050565b60008073ffffffffffffffffffffffffffffffffffffffff166002600084815260200190815260200160002060009054906101000a900473ffffffffffffffffffffffffffffffffffffffff1673ffffffffffffffffffffffffffffffffffffffff1614159050919050565b600033905090565b816004600083815260200190815260200160002060006101000a81548173ffffffffffffffffffffffffffffffffffffffff021916908373ffffffffffffffffffffffffffffffffffffffff160217905550808273ffffffffffffffffffffffffffffffffffffffff16610ecd83610854565b73ffffffffffffffffffffffffffffffffffffffff167f8c5be1e5ebec7d5bd14f71427d1e84f3dd0314c0f7b2291e5b200ac8c7c3b92560405160405180910390a45050565b6000610f1e82610de6565b610f5d576040517f08c379a0000000000000000000000000000000000000000000000000000000008152600401610f5490612451565b60405180910390fd5b6000610f6883610854565b90508073ffffffffffffffffffffffffffffffffffffffff168473ffffffffffffffffffffffffffffffffffffffff161480610fd757508373ffffffffffffffffffffffffffffffffffffffff16610fbf84610485565b73ffffffffffffffffffffffffffffffffffffffff16145b80610fe85750610fe78185610cd8565b5b91505092915050565b8273ffffffffffffffffffffffffffffffffffffffff1661101182610854565b73ffffffffffffffffffffffffffffffffffffffff1614611067576040517f08c379a000000000000000000000000000000000000000000000000000000000815260040161105e90612511565b60405180910390fd5b600073ffffffffffffffffffffffffffffffffffffffff168273ffffffffffffffffffffffffffffffffffffffff1614156110d7576040517f08c379a00000000000000000000000000000000000000000000000000000000081526004016110ce90612411565b60405180910390fd5b6110e283838361157d565b6110ed600082610e5a565b6001600360008573ffffffffffffffffffffffffffffffffffffffff1673ffffffffffffffffffffffffffffffffffffffff168152602001908152602001600020600082825461113d91906126c1565b925050819055506001600360008473ffffffffffffffffffffffffffffffffffffffff1673ffffffffffffffffffffffffffffffffffffffff1681526020019081526020016000206000828254611194919061266b565b92505081905550816002600083815260200190815260200160002060006101000a81548173ffffffffffffffffffffffffffffffffffffffff021916908373ffffffffffffffffffffffffffffffffffffffff160217905550808273ffffffffffffffffffffffffffffffffffffffff168473ffffffffffffffffffffffffffffffffffffffff167fddf252ad1be2c89b69c2b068fc378daa952ba7f163c4a11628f55a4df523b3ef60405160405180910390a4505050565b6001816000016000828254019250508190555050565b600081600001549050919050565b600073ffffffffffffffffffffffffffffffffffffffff168273ffffffffffffffffffffffffffffffffffffffff1614156112e1576040517f08c379a00000000000000000000000000000000000000000000000000000000081526004016112d8906124d1565b60405180910390fd5b6112ea81610de6565b1561132a576040517f08c379a0000000000000000000000000000000000000000000000000000000008152600401611321906123f1565b60405180910390fd5b6113366000838361157d565b6001600360008473ffffffffffffffffffffffffffffffffffffffff1673ffffffffffffffffffffffffffffffffffffffff1681526020019081526020016000206000828254611386919061266b565b92505081905550816002600083815260200190815260200160002060006101000a81548173ffffffffffffffffffffffffffffffffffffffff021916908373ffffffffffffffffffffffffffffffffffffffff160217905550808273ffffffffffffffffffffffffffffffffffffffff16600073ffffffffffffffffffffffffffffffffffffffff167fddf252ad1be2c89b69c2b068fc378daa952ba7f163c4a11628f55a4df523b3ef60405160405180910390a45050565b61144a848484610ff1565b61145684848484611691565b611495576040517f08c379a000000000000000000000000000000000000000000000000000000000815260040161148c906123d1565b60405180910390fd5b50505050565b60007f80ac58cd000000000000000000000000000000000000000000000000000000007bffffffffffffffffffffffffffffffffffffffffffffffffffffffff1916827bffffffffffffffffffffffffffffffffffffffffffffffffffffffff1916148061156657507f5b5e139f000000000000000000000000000000000000000000000000000000007bffffffffffffffffffffffffffffffffffffffffffffffffffffffff1916827bffffffffffffffffffffffffffffffffffffffffffffffffffffffff1916145b80611576575061157582611828565b5b9050919050565b611588838383611892565b600073ffffffffffffffffffffffffffffffffffffffff168373ffffffffffffffffffffffffffffffffffffffff1614156115cb576115c681611897565b61160a565b8173ffffffffffffffffffffffffffffffffffffffff168373ffffffffffffffffffffffffffffffffffffffff16146116095761160883826118e0565b5b5b600073ffffffffffffffffffffffffffffffffffffffff168273ffffffffffffffffffffffffffffffffffffffff16141561164d5761164881611a4d565b61168c565b8273ffffffffffffffffffffffffffffffffffffffff168273ffffffffffffffffffffffffffffffffffffffff161461168b5761168a8282611b90565b5b5b505050565b60006116b28473ffffffffffffffffffffffffffffffffffffffff16611c0f565b1561181b578373ffffffffffffffffffffffffffffffffffffffff1663150b7a026116db610e52565b8786866040518563ffffffff1660e01b81526004016116fd9493929190612328565b602060405180830381600087803b15801561171757600080fd5b505af192505050801561174857506040513d601f19601f820116820180604052508101906117459190611fce565b60015b6117cb573d8060008114611778576040519150601f19603f3d011682016040523d82523d6000602084013e61177d565b606091505b506000815114156117c3576040517f08c379a00000000000000000000000000000000000000000000000000000000081526004016117ba906123d1565b60405180910390fd5b805181602001fd5b63150b7a0260e01b7bffffffffffffffffffffffffffffffffffffffffffffffffffffffff1916817bffffffffffffffffffffffffffffffffffffffffffffffffffffffff191614915050611820565b600190505b949350505050565b60007f01ffc9a7000000000000000000000000000000000000000000000000000000007bffffffffffffffffffffffffffffffffffffffffffffffffffffffff1916827bffffffffffffffffffffffffffffffffffffffffffffffffffffffff1916149050919050565b505050565b6008805490506009600083815260200190815260200160002081905550600881908060018154018082558091505060019003906000526020600020016000909190919091505550565b600060016118ed84610906565b6118f791906126c1565b90506000600760008481526020019081526020016000205490508181146119dc576000600660008673ffffffffffffffffffffffffffffffffffffffff1673ffffffffffffffffffffffffffffffffffffffff168152602001908152602001600020600084815260200190815260200160002054905080600660008773ffffffffffffffffffffffffffffffffffffffff1673ffffffffffffffffffffffffffffffffffffffff168152602001908152602001600020600084815260200190815260200160002081905550816007600083815260200190815260200160002081905550505b6007600084815260200190815260200160002060009055600660008573ffffffffffffffffffffffffffffffffffffffff1673ffffffffffffffffffffffffffffffffffffffff16815260200190815260200160002060008381526020019081526020016000206000905550505050565b60006001600880549050611a6191906126c1565b9050600060096000848152602001908152602001600020549050600060088381548110611ab7577f4e487b7100000000000000000000000000000000000000000000000000000000600052603260045260246000fd5b906000526020600020015490508060088381548110611aff577f4e487b7100000000000000000000000000000000000000000000000000000000600052603260045260246000fd5b906000526020600020018190555081600960008381526020019081526020016000208190555060096000858152602001908152602001600020600090556008805480611b74577f4e487b7100000000000000000000000000000000000000000000000000000000600052603160045260246000fd5b6001900381819060005260206000200160009055905550505050565b6000611b9b83610906565b905081600660008573ffffffffffffffffffffffffffffffffffffffff1673ffffffffffffffffffffffffffffffffffffffff168152602001908152602001600020600083815260200190815260200160002081905550806007600084815260200190815260200160002081905550505050565b600080823b905060008111915050919050565b828054611c2e906127ab565b90600052602060002090601f016020900481019282611c505760008555611c97565b82601f10611c6957805160ff1916838001178555611c97565b82800160010185558215611c97579182015b82811115611c96578251825591602001919060010190611c7b565b5b509050611ca49190611ca8565b5090565b5b80821115611cc1576000816000905550600101611ca9565b5090565b6000611cd8611cd3846125d1565b6125ac565b905082815260208101848484011115611cf057600080fd5b611cfb848285612769565b509392505050565b6000611d16611d1184612602565b6125ac565b905082815260208101848484011115611d2e57600080fd5b611d39848285612769565b509392505050565b600081359050611d5081612cdb565b92915050565b600081359050611d6581612cf2565b92915050565b600081359050611d7a81612d09565b92915050565b600081519050611d8f81612d09565b92915050565b600082601f830112611da657600080fd5b8135611db6848260208601611cc5565b91505092915050565b600082601f830112611dd057600080fd5b8135611de0848260208601611d03565b91505092915050565b600081359050611df881612d20565b92915050565b600060208284031215611e1057600080fd5b6000611e1e84828501611d41565b91505092915050565b60008060408385031215611e3a57600080fd5b6000611e4885828601611d41565b9250506020611e5985828601611d41565b9150509250929050565b600080600060608486031215611e7857600080fd5b6000611e8686828701611d41565b9350506020611e9786828701611d41565b9250506040611ea886828701611de9565b9150509250925092565b60008060008060808587031215611ec857600080fd5b6000611ed687828801611d41565b9450506020611ee787828801611d41565b9350506040611ef887828801611de9565b925050606085013567ffffffffffffffff811115611f1557600080fd5b611f2187828801611d95565b91505092959194509250565b60008060408385031215611f4057600080fd5b6000611f4e85828601611d41565b9250506020611f5f85828601611d56565b9150509250929050565b60008060408385031215611f7c57600080fd5b6000611f8a85828601611d41565b9250506020611f9b85828601611de9565b9150509250929050565b600060208284031215611fb757600080fd5b6000611fc584828501611d6b565b91505092915050565b600060208284031215611fe057600080fd5b6000611fee84828501611d80565b91505092915050565b60006020828403121561200957600080fd5b600082013567ffffffffffffffff81111561202357600080fd5b61202f84828501611dbf565b91505092915050565b60006020828403121561204a57600080fd5b600061205884828501611de9565b91505092915050565b61206a816126f5565b82525050565b61207981612707565b82525050565b600061208a82612633565b6120948185612649565b93506120a4818560208601612778565b6120ad8161289b565b840191505092915050565b60006120c38261263e565b6120cd818561265a565b93506120dd818560208601612778565b6120e68161289b565b840191505092915050565b60006120fe602b8361265a565b9150612109826128ac565b604082019050919050565b600061212160328361265a565b915061212c826128fb565b604082019050919050565b6000612144601c8361265a565b915061214f8261294a565b602082019050919050565b600061216760248361265a565b915061217282612973565b604082019050919050565b600061218a60198361265a565b9150612195826129c2565b602082019050919050565b60006121ad602c8361265a565b91506121b8826129eb565b604082019050919050565b60006121d060388361265a565b91506121db82612a3a565b604082019050919050565b60006121f3602a8361265a565b91506121fe82612a89565b604082019050919050565b600061221660298361265a565b915061222182612ad8565b604082019050919050565b600061223960208361265a565b915061224482612b27565b602082019050919050565b600061225c602c8361265a565b915061226782612b50565b604082019050919050565b600061227f60298361265a565b915061228a82612b9f565b604082019050919050565b60006122a260218361265a565b91506122ad82612bee565b604082019050919050565b60006122c560318361265a565b91506122d082612c3d565b604082019050919050565b60006122e8602c8361265a565b91506122f382612c8c565b604082019050919050565b6123078161275f565b82525050565b60006020820190506123226000830184612061565b92915050565b600060808201905061233d6000830187612061565b61234a6020830186612061565b61235760408301856122fe565b8181036060830152612369818461207f565b905095945050505050565b60006020820190506123896000830184612070565b92915050565b600060208201905081810360008301526123a981846120b8565b905092915050565b600060208201905081810360008301526123ca816120f1565b9050919050565b600060208201905081810360008301526123ea81612114565b9050919050565b6000602082019050818103600083015261240a81612137565b9050919050565b6000602082019050818103600083015261242a8161215a565b9050919050565b6000602082019050818103600083015261244a8161217d565b9050919050565b6000602082019050818103600083015261246a816121a0565b9050919050565b6000602082019050818103600083015261248a816121c3565b9050919050565b600060208201905081810360008301526124aa816121e6565b9050919050565b600060208201905081810360008301526124ca81612209565b9050919050565b600060208201905081810360008301526124ea8161222c565b9050919050565b6000602082019050818103600083015261250a8161224f565b9050919050565b6000602082019050818103600083015261252a81612272565b9050919050565b6000602082019050818103600083015261254a81612295565b9050919050565b6000602082019050818103600083015261256a816122b8565b9050919050565b6000602082019050818103600083015261258a816122db565b9050919050565b60006020820190506125a660008301846122fe565b92915050565b60006125b66125c7565b90506125c282826127dd565b919050565b6000604051905090565b600067ffffffffffffffff8211156125ec576125eb61286c565b5b6125f58261289b565b9050602081019050919050565b600067ffffffffffffffff82111561261d5761261c61286c565b5b6126268261289b565b9050602081019050919050565b600081519050919050565b600081519050919050565b600082825260208201905092915050565b600082825260208201905092915050565b60006126768261275f565b91506126818361275f565b9250827fffffffffffffffffffffffffffffffffffffffffffffffffffffffffffffffff038211156126b6576126b561280e565b5b828201905092915050565b60006126cc8261275f565b91506126d78361275f565b9250828210156126ea576126e961280e565b5b828203905092915050565b60006127008261273f565b9050919050565b60008115159050919050565b60007fffffffff0000000000000000000000000000000000000000000000000000000082169050919050565b600073ffffffffffffffffffffffffffffffffffffffff82169050919050565b6000819050919050565b82818337600083830152505050565b60005b8381101561279657808201518184015260208101905061277b565b838111156127a5576000848401525b50505050565b600060028204905060018216806127c357607f821691505b602082108114156127d7576127d661283d565b5b50919050565b6127e68261289b565b810181811067ffffffffffffffff821117156128055761280461286c565b5b80604052505050565b7f4e487b7100000000000000000000000000000000000000000000000000000000600052601160045260246000fd5b7f4e487b7100000000000000000000000000000000000000000000000000000000600052602260045260246000fd5b7f4e487b7100000000000000000000000000000000000000000000000000000000600052604160045260246000fd5b6000601f19601f8301169050919050565b7f455243373231456e756d657261626c653a206f776e657220696e646578206f7560008201527f74206f6620626f756e6473000000000000000000000000000000000000000000602082015250565b7f4552433732313a207472616e7366657220746f206e6f6e20455243373231526560008201527f63656976657220696d706c656d656e7465720000000000000000000000000000602082015250565b7f4552433732313a20746f6b656e20616c7265616479206d696e74656400000000600082015250565b7f4552433732313a207472616e7366657220746f20746865207a65726f2061646460008201527f7265737300000000000000000000000000000000000000000000000000000000602082015250565b7f4552433732313a20617070726f766520746f2063616c6c657200000000000000600082015250565b7f4552433732313a206f70657261746f7220717565727920666f72206e6f6e657860008201527f697374656e7420746f6b656e0000000000000000000000000000000000000000602082015250565b7f4552433732313a20617070726f76652063616c6c6572206973206e6f74206f7760008201527f6e6572206e6f7220617070726f76656420666f7220616c6c0000000000000000602082015250565b7f4552433732313a2062616c616e636520717565727920666f7220746865207a6560008201527f726f206164647265737300000000000000000000000000000000000000000000602082015250565b7f4552433732313a206f776e657220717565727920666f72206e6f6e657869737460008201527f656e7420746f6b656e0000000000000000000000000000000000000000000000602082015250565b7f4552433732313a206d696e7420746f20746865207a65726f2061646472657373600082015250565b7f4552433732313a20617070726f76656420717565727920666f72206e6f6e657860008201527f697374656e7420746f6b656e0000000000000000000000000000000000000000602082015250565b7f4552433732313a207472616e73666572206f6620746f6b656e2074686174206960008201527f73206e6f74206f776e0000000000000000000000000000000000000000000000602082015250565b7f4552433732313a20617070726f76616c20746f2063757272656e74206f776e6560008201527f7200000000000000000000000000000000000000000000000000000000000000602082015250565b7f4552433732313a207472616e736665722063616c6c6572206973206e6f74206f60008201527f776e6572206e6f7220617070726f766564000000000000000000000000000000602082015250565b7f455243373231456e756d657261626c653a20676c6f62616c20696e646578206f60008201527f7574206f6620626f756e64730000000000000000000000000000000000000000602082015250565b612ce4816126f5565b8114612cef57600080fd5b50565b612cfb81612707565b8114612d0657600080fd5b50565b612d1281612713565b8114612d1d57600080fd5b50565b612d298161275f565b8114612d3457600080fd5b5056fea2646970667358221220c45797cda3032d5269e76059493d267697ff3cbeeab5f729eaf456fbe301a23b64736f6c63430008040033",
  "linkReferences": {},
  "deployedLinkReferences": {}
}